{
    "contracts/DecxDAG.sol": {
        "DecxDAG": {
            "abi": [
                {
                    "inputs": [
                        {
                            "internalType": "address",
                            "name": "_decxRegistry",
                            "type": "address"
                        }
                    ],
                    "stateMutability": "nonpayable",
                    "type": "constructor"
                },
                {
                    "inputs": [],
                    "name": "DecxDAG_EmptyStringNotAllowed",
                    "type": "error"
                },
                {
                    "inputs": [],
                    "name": "DecxDAG_HashDoesNotExist",
                    "type": "error"
                },
                {
                    "anonymous": false,
                    "inputs": [
                        {
                            "indexed": true,
                            "internalType": "bytes32",
                            "name": "hash",
                            "type": "bytes32"
                        },
                        {
                            "indexed": false,
                            "internalType": "bytes",
                            "name": "encryptedPayload",
                            "type": "bytes"
                        }
                    ],
                    "name": "EncryptedDataStored",
                    "type": "event"
                },
                {
                    "anonymous": false,
                    "inputs": [
                        {
                            "indexed": true,
                            "internalType": "bytes32",
                            "name": "hash",
                            "type": "bytes32"
                        },
                        {
                            "indexed": false,
                            "internalType": "bytes32[2]",
                            "name": "components",
                            "type": "bytes32[2]"
                        },
                        {
                            "indexed": false,
                            "internalType": "uint256",
                            "name": "index",
                            "type": "uint256"
                        }
                    ],
                    "name": "EncryptionPathCreated",
                    "type": "event"
                },
                {
                    "inputs": [
                        {
                            "internalType": "bytes32",
                            "name": "hash",
                            "type": "bytes32"
                        }
                    ],
                    "name": "exists",
                    "outputs": [
                        {
                            "internalType": "bool",
                            "name": "",
                            "type": "bool"
                        }
                    ],
                    "stateMutability": "view",
                    "type": "function"
                },
                {
                    "inputs": [
                        {
                            "internalType": "bytes32",
                            "name": "hash",
                            "type": "bytes32"
                        }
                    ],
                    "name": "getComponents",
                    "outputs": [
                        {
                            "internalType": "bytes32[2]",
                            "name": "",
                            "type": "bytes32[2]"
                        }
                    ],
                    "stateMutability": "view",
                    "type": "function"
                },
                {
                    "inputs": [
                        {
                            "internalType": "string",
                            "name": "input",
                            "type": "string"
                        }
                    ],
                    "name": "press",
                    "outputs": [
                        {
                            "internalType": "bytes32",
                            "name": "",
                            "type": "bytes32"
                        }
                    ],
                    "stateMutability": "nonpayable",
                    "type": "function"
                },
                {
                    "inputs": [
                        {
                            "internalType": "bytes32",
                            "name": "hash",
                            "type": "bytes32"
                        },
                        {
                            "internalType": "bytes",
                            "name": "encryptedPayload",
                            "type": "bytes"
                        }
                    ],
                    "name": "storeEncryptedData",
                    "outputs": [],
                    "stateMutability": "nonpayable",
                    "type": "function"
                }
            ],
            "evm": {
                "bytecode": {
                    "linkReferences": {},
                    "object": "6080604052348015600f57600080fd5b50604051610be2380380610be2833981016040819052602c916053565b600080546001600160a01b0319166001600160a01b03929092169190911781556001556081565b600060208284031215606457600080fd5b81516001600160a01b0381168114607a57600080fd5b9392505050565b610b52806100906000396000f3fe608060405234801561001057600080fd5b506004361061004c5760003560e01c80631d03df5e1461005157806338a699a41461007a578063ad7aea101461009d578063e72d5e5f146100b2575b600080fd5b61006461005f3660046107f8565b6100d3565b604051610071919061083a565b60405180910390f35b61008d6100883660046107f8565b61014d565b6040519015158152602001610071565b6100b06100ab366004610891565b6101bb565b005b6100c56100c03660046108dd565b610284565b604051908152602001610071565b6100db6107da565b600054604051630e81efaf60e11b8152600481018490526001600160a01b0390911690631d03df5e906024016040805180830381865afa158015610123573d6000803e3d6000fd5b505050506040513d601f19601f820116820180604052508101906101479190610935565b92915050565b6000805460405163b535b5c360e01b8152600481018490526001600160a01b039091169063b535b5c390602401602060405180830381865afa158015610197573d6000803e3d6000fd5b505050506040513d601f19601f8201168201806040525081019061014791906109b5565b60005460405163b535b5c360e01b8152600481018590526001600160a01b039091169063b535b5c390602401602060405180830381865afa158015610204573d6000803e3d6000fd5b505050506040513d601f19601f8201168201806040525081019061022891906109b5565b61024557604051630325f5b760e61b815260040160405180910390fd5b827fe658f5046eebdef59fb4837b9896d61624119beffd0dd0a070d4ef286815c40783836040516102779291906109de565b60405180910390a2505050565b60008083838080601f0160208091040260200160405190810160405280939291908181526020018383808284376000920182905250845194955084900392506102e39150505760405163e13793b760e01b815260040160405180910390fd5b6000806102ef8461030b565b9150915060006102ff83836105c8565b98975050505050505050565b80516060906000908067ffffffffffffffff81111561032c5761032c61091f565b604051908082528060200260200182016040528015610355578160200160208202803683370190505b5092506000915060005b818110156105c157600085828151811061037b5761037b610a0d565b0160200151600160ff1b16600003610395575060016103f7565b8582815181106103a7576103a7610a0d565b0160200151600760fd1b16600360fe1b036103c4575060026103f7565b8582815181106103d6576103d6610a0d565b0160200151600f60fc1b16600760fd1b036103f3575060036103f7565b5060045b60008167ffffffffffffffff8111156104125761041261091f565b6040519080825280601f01601f19166020018201604052801561043c576020820181803683370190505b50905060005b828110156104a157876104558286610a39565b8151811061046557610465610a0d565b602001015160f81c60f81b82828151811061048257610482610a0d565b60200101906001600160f81b031916908160001a905350600101610442565b506000805460405163013067d560e11b81528392916001600160a01b031690630260cfaa906104d4908590600401610a4c565b6020604051808303816000875af11580156104f3573d6000803e3d6000fd5b505050506040513d601f19601f820116820180604052508101906105179190610a9a565b90508088888151811061052c5761052c610a0d565b602002602001018181525050807f7048737eaa1d4aad6328a57ac89c84007f0956b04c6cdf9c75fc34042e45955560405180604001604052808481526020016000801b8152506001600081548092919061058590610ab3565b91905055604051610597929190610acc565b60405180910390a26105a98486610a39565b9450866105b581610ab3565b9750505050505061035f565b5050915091565b6000815b60018111156107b6576000805b826105e5826001610a39565b101561074d576000604051806040016040528088848151811061060a5761060a610a0d565b60200260200101518152602001888460016106259190610a39565b8151811061063557610635610a0d565b6020908102919091010151905260008054604051630142736b60e41b815292935090916001600160a01b039091169063142736b09061067890859060040161083a565b6020604051808303816000875af1158015610697573d6000803e3d6000fd5b505050506040513d601f19601f820116820180604052508101906106bb9190610a9a565b9050808885815181106106d0576106d0610a0d565b60209081029190910101526001805482917f7048737eaa1d4aad6328a57ac89c84007f0956b04c6cdf9c75fc34042e459555918591600061071083610ab3565b91905055604051610722929190610acc565b60405180910390a28361073481610ab3565b94505050506002816107469190610a39565b90506105d9565b50610759600283610ae7565b6001036107af578461076c600184610b09565b8151811061077c5761077c610a0d565b602002602001015185828151811061079657610796610a0d565b6020908102919091010152806107ab81610ab3565b9150505b90506105cc565b836000815181106107c9576107c9610a0d565b602002602001015191505092915050565b60405180604001604052806002906020820280368337509192915050565b60006020828403121561080a57600080fd5b5035919050565b8060005b6002811015610834578151845260209384019390910190600101610815565b50505050565b604081016101478284610811565b60008083601f84011261085a57600080fd5b50813567ffffffffffffffff81111561087257600080fd5b60208301915083602082850101111561088a57600080fd5b9250929050565b6000806000604084860312156108a657600080fd5b83359250602084013567ffffffffffffffff8111156108c457600080fd5b6108d086828701610848565b9497909650939450505050565b600080602083850312156108f057600080fd5b823567ffffffffffffffff81111561090757600080fd5b61091385828601610848565b90969095509350505050565b634e487b7160e01b600052604160045260246000fd5b60006040828403121561094757600080fd5b82601f83011261095657600080fd5b6040516040810181811067ffffffffffffffff821117156109795761097961091f565b806040525080604084018581111561099057600080fd5b845b818110156109aa578051835260209283019201610992565b509195945050505050565b6000602082840312156109c757600080fd5b815180151581146109d757600080fd5b9392505050565b60208152816020820152818360408301376000818301604090810191909152601f909201601f19160101919050565b634e487b7160e01b600052603260045260246000fd5b634e487b7160e01b600052601160045260246000fd5b8082018082111561014757610147610a23565b602081526000825180602084015260005b81811015610a7a5760208186018101516040868401015201610a5d565b506000604082850101526040601f19601f83011684010191505092915050565b600060208284031215610aac57600080fd5b5051919050565b600060018201610ac557610ac5610a23565b5060010190565b60608101610ada8285610811565b8260408301529392505050565b600082610b0457634e487b7160e01b600052601260045260246000fd5b500690565b8181038181111561014757610147610a2356fea26469706673582212207c8d2cbb6c9637e1b6230ff69c18741e274ab323746b3a78f0582e6c56b751a264736f6c634300081c0033",
                    "opcodes": "PUSH1 0x80 PUSH1 0x40 MSTORE CALLVALUE DUP1 ISZERO PUSH1 0xF JUMPI PUSH1 0x0 DUP1 REVERT JUMPDEST POP PUSH1 0x40 MLOAD PUSH2 0xBE2 CODESIZE SUB DUP1 PUSH2 0xBE2 DUP4 CODECOPY DUP2 ADD PUSH1 0x40 DUP2 SWAP1 MSTORE PUSH1 0x2C SWAP2 PUSH1 0x53 JUMP JUMPDEST PUSH1 0x0 DUP1 SLOAD PUSH1 0x1 PUSH1 0x1 PUSH1 0xA0 SHL SUB NOT AND PUSH1 0x1 PUSH1 0x1 PUSH1 0xA0 SHL SUB SWAP3 SWAP1 SWAP3 AND SWAP2 SWAP1 SWAP2 OR DUP2 SSTORE PUSH1 0x1 SSTORE PUSH1 0x81 JUMP JUMPDEST PUSH1 0x0 PUSH1 0x20 DUP3 DUP5 SUB SLT ISZERO PUSH1 0x64 JUMPI PUSH1 0x0 DUP1 REVERT JUMPDEST DUP2 MLOAD PUSH1 0x1 PUSH1 0x1 PUSH1 0xA0 SHL SUB DUP2 AND DUP2 EQ PUSH1 0x7A JUMPI PUSH1 0x0 DUP1 REVERT JUMPDEST SWAP4 SWAP3 POP POP POP JUMP JUMPDEST PUSH2 0xB52 DUP1 PUSH2 0x90 PUSH1 0x0 CODECOPY PUSH1 0x0 RETURN INVALID PUSH1 0x80 PUSH1 0x40 MSTORE CALLVALUE DUP1 ISZERO PUSH2 0x10 JUMPI PUSH1 0x0 DUP1 REVERT JUMPDEST POP PUSH1 0x4 CALLDATASIZE LT PUSH2 0x4C JUMPI PUSH1 0x0 CALLDATALOAD PUSH1 0xE0 SHR DUP1 PUSH4 0x1D03DF5E EQ PUSH2 0x51 JUMPI DUP1 PUSH4 0x38A699A4 EQ PUSH2 0x7A JUMPI DUP1 PUSH4 0xAD7AEA10 EQ PUSH2 0x9D JUMPI DUP1 PUSH4 0xE72D5E5F EQ PUSH2 0xB2 JUMPI JUMPDEST PUSH1 0x0 DUP1 REVERT JUMPDEST PUSH2 0x64 PUSH2 0x5F CALLDATASIZE PUSH1 0x4 PUSH2 0x7F8 JUMP JUMPDEST PUSH2 0xD3 JUMP JUMPDEST PUSH1 0x40 MLOAD PUSH2 0x71 SWAP2 SWAP1 PUSH2 0x83A JUMP JUMPDEST PUSH1 0x40 MLOAD DUP1 SWAP2 SUB SWAP1 RETURN JUMPDEST PUSH2 0x8D PUSH2 0x88 CALLDATASIZE PUSH1 0x4 PUSH2 0x7F8 JUMP JUMPDEST PUSH2 0x14D JUMP JUMPDEST PUSH1 0x40 MLOAD SWAP1 ISZERO ISZERO DUP2 MSTORE PUSH1 0x20 ADD PUSH2 0x71 JUMP JUMPDEST PUSH2 0xB0 PUSH2 0xAB CALLDATASIZE PUSH1 0x4 PUSH2 0x891 JUMP JUMPDEST PUSH2 0x1BB JUMP JUMPDEST STOP JUMPDEST PUSH2 0xC5 PUSH2 0xC0 CALLDATASIZE PUSH1 0x4 PUSH2 0x8DD JUMP JUMPDEST PUSH2 0x284 JUMP JUMPDEST PUSH1 0x40 MLOAD SWAP1 DUP2 MSTORE PUSH1 0x20 ADD PUSH2 0x71 JUMP JUMPDEST PUSH2 0xDB PUSH2 0x7DA JUMP JUMPDEST PUSH1 0x0 SLOAD PUSH1 0x40 MLOAD PUSH4 0xE81EFAF PUSH1 0xE1 SHL DUP2 MSTORE PUSH1 0x4 DUP2 ADD DUP5 SWAP1 MSTORE PUSH1 0x1 PUSH1 0x1 PUSH1 0xA0 SHL SUB SWAP1 SWAP2 AND SWAP1 PUSH4 0x1D03DF5E SWAP1 PUSH1 0x24 ADD PUSH1 0x40 DUP1 MLOAD DUP1 DUP4 SUB DUP2 DUP7 GAS STATICCALL ISZERO DUP1 ISZERO PUSH2 0x123 JUMPI RETURNDATASIZE PUSH1 0x0 DUP1 RETURNDATACOPY RETURNDATASIZE PUSH1 0x0 REVERT JUMPDEST POP POP POP POP PUSH1 0x40 MLOAD RETURNDATASIZE PUSH1 0x1F NOT PUSH1 0x1F DUP3 ADD AND DUP3 ADD DUP1 PUSH1 0x40 MSTORE POP DUP2 ADD SWAP1 PUSH2 0x147 SWAP2 SWAP1 PUSH2 0x935 JUMP JUMPDEST SWAP3 SWAP2 POP POP JUMP JUMPDEST PUSH1 0x0 DUP1 SLOAD PUSH1 0x40 MLOAD PUSH4 0xB535B5C3 PUSH1 0xE0 SHL DUP2 MSTORE PUSH1 0x4 DUP2 ADD DUP5 SWAP1 MSTORE PUSH1 0x1 PUSH1 0x1 PUSH1 0xA0 SHL SUB SWAP1 SWAP2 AND SWAP1 PUSH4 0xB535B5C3 SWAP1 PUSH1 0x24 ADD PUSH1 0x20 PUSH1 0x40 MLOAD DUP1 DUP4 SUB DUP2 DUP7 GAS STATICCALL ISZERO DUP1 ISZERO PUSH2 0x197 JUMPI RETURNDATASIZE PUSH1 0x0 DUP1 RETURNDATACOPY RETURNDATASIZE PUSH1 0x0 REVERT JUMPDEST POP POP POP POP PUSH1 0x40 MLOAD RETURNDATASIZE PUSH1 0x1F NOT PUSH1 0x1F DUP3 ADD AND DUP3 ADD DUP1 PUSH1 0x40 MSTORE POP DUP2 ADD SWAP1 PUSH2 0x147 SWAP2 SWAP1 PUSH2 0x9B5 JUMP JUMPDEST PUSH1 0x0 SLOAD PUSH1 0x40 MLOAD PUSH4 0xB535B5C3 PUSH1 0xE0 SHL DUP2 MSTORE PUSH1 0x4 DUP2 ADD DUP6 SWAP1 MSTORE PUSH1 0x1 PUSH1 0x1 PUSH1 0xA0 SHL SUB SWAP1 SWAP2 AND SWAP1 PUSH4 0xB535B5C3 SWAP1 PUSH1 0x24 ADD PUSH1 0x20 PUSH1 0x40 MLOAD DUP1 DUP4 SUB DUP2 DUP7 GAS STATICCALL ISZERO DUP1 ISZERO PUSH2 0x204 JUMPI RETURNDATASIZE PUSH1 0x0 DUP1 RETURNDATACOPY RETURNDATASIZE PUSH1 0x0 REVERT JUMPDEST POP POP POP POP PUSH1 0x40 MLOAD RETURNDATASIZE PUSH1 0x1F NOT PUSH1 0x1F DUP3 ADD AND DUP3 ADD DUP1 PUSH1 0x40 MSTORE POP DUP2 ADD SWAP1 PUSH2 0x228 SWAP2 SWAP1 PUSH2 0x9B5 JUMP JUMPDEST PUSH2 0x245 JUMPI PUSH1 0x40 MLOAD PUSH4 0x325F5B7 PUSH1 0xE6 SHL DUP2 MSTORE PUSH1 0x4 ADD PUSH1 0x40 MLOAD DUP1 SWAP2 SUB SWAP1 REVERT JUMPDEST DUP3 PUSH32 0xE658F5046EEBDEF59FB4837B9896D61624119BEFFD0DD0A070D4EF286815C407 DUP4 DUP4 PUSH1 0x40 MLOAD PUSH2 0x277 SWAP3 SWAP2 SWAP1 PUSH2 0x9DE JUMP JUMPDEST PUSH1 0x40 MLOAD DUP1 SWAP2 SUB SWAP1 LOG2 POP POP POP JUMP JUMPDEST PUSH1 0x0 DUP1 DUP4 DUP4 DUP1 DUP1 PUSH1 0x1F ADD PUSH1 0x20 DUP1 SWAP2 DIV MUL PUSH1 0x20 ADD PUSH1 0x40 MLOAD SWAP1 DUP2 ADD PUSH1 0x40 MSTORE DUP1 SWAP4 SWAP3 SWAP2 SWAP1 DUP2 DUP2 MSTORE PUSH1 0x20 ADD DUP4 DUP4 DUP1 DUP3 DUP5 CALLDATACOPY PUSH1 0x0 SWAP3 ADD DUP3 SWAP1 MSTORE POP DUP5 MLOAD SWAP5 SWAP6 POP DUP5 SWAP1 SUB SWAP3 POP PUSH2 0x2E3 SWAP2 POP POP JUMPI PUSH1 0x40 MLOAD PUSH4 0xE13793B7 PUSH1 0xE0 SHL DUP2 MSTORE PUSH1 0x4 ADD PUSH1 0x40 MLOAD DUP1 SWAP2 SUB SWAP1 REVERT JUMPDEST PUSH1 0x0 DUP1 PUSH2 0x2EF DUP5 PUSH2 0x30B JUMP JUMPDEST SWAP2 POP SWAP2 POP PUSH1 0x0 PUSH2 0x2FF DUP4 DUP4 PUSH2 0x5C8 JUMP JUMPDEST SWAP9 SWAP8 POP POP POP POP POP POP POP POP JUMP JUMPDEST DUP1 MLOAD PUSH1 0x60 SWAP1 PUSH1 0x0 SWAP1 DUP1 PUSH8 0xFFFFFFFFFFFFFFFF DUP2 GT ISZERO PUSH2 0x32C JUMPI PUSH2 0x32C PUSH2 0x91F JUMP JUMPDEST PUSH1 0x40 MLOAD SWAP1 DUP1 DUP3 MSTORE DUP1 PUSH1 0x20 MUL PUSH1 0x20 ADD DUP3 ADD PUSH1 0x40 MSTORE DUP1 ISZERO PUSH2 0x355 JUMPI DUP2 PUSH1 0x20 ADD PUSH1 0x20 DUP3 MUL DUP1 CALLDATASIZE DUP4 CALLDATACOPY ADD SWAP1 POP JUMPDEST POP SWAP3 POP PUSH1 0x0 SWAP2 POP PUSH1 0x0 JUMPDEST DUP2 DUP2 LT ISZERO PUSH2 0x5C1 JUMPI PUSH1 0x0 DUP6 DUP3 DUP2 MLOAD DUP2 LT PUSH2 0x37B JUMPI PUSH2 0x37B PUSH2 0xA0D JUMP JUMPDEST ADD PUSH1 0x20 ADD MLOAD PUSH1 0x1 PUSH1 0xFF SHL AND PUSH1 0x0 SUB PUSH2 0x395 JUMPI POP PUSH1 0x1 PUSH2 0x3F7 JUMP JUMPDEST DUP6 DUP3 DUP2 MLOAD DUP2 LT PUSH2 0x3A7 JUMPI PUSH2 0x3A7 PUSH2 0xA0D JUMP JUMPDEST ADD PUSH1 0x20 ADD MLOAD PUSH1 0x7 PUSH1 0xFD SHL AND PUSH1 0x3 PUSH1 0xFE SHL SUB PUSH2 0x3C4 JUMPI POP PUSH1 0x2 PUSH2 0x3F7 JUMP JUMPDEST DUP6 DUP3 DUP2 MLOAD DUP2 LT PUSH2 0x3D6 JUMPI PUSH2 0x3D6 PUSH2 0xA0D JUMP JUMPDEST ADD PUSH1 0x20 ADD MLOAD PUSH1 0xF PUSH1 0xFC SHL AND PUSH1 0x7 PUSH1 0xFD SHL SUB PUSH2 0x3F3 JUMPI POP PUSH1 0x3 PUSH2 0x3F7 JUMP JUMPDEST POP PUSH1 0x4 JUMPDEST PUSH1 0x0 DUP2 PUSH8 0xFFFFFFFFFFFFFFFF DUP2 GT ISZERO PUSH2 0x412 JUMPI PUSH2 0x412 PUSH2 0x91F JUMP JUMPDEST PUSH1 0x40 MLOAD SWAP1 DUP1 DUP3 MSTORE DUP1 PUSH1 0x1F ADD PUSH1 0x1F NOT AND PUSH1 0x20 ADD DUP3 ADD PUSH1 0x40 MSTORE DUP1 ISZERO PUSH2 0x43C JUMPI PUSH1 0x20 DUP3 ADD DUP2 DUP1 CALLDATASIZE DUP4 CALLDATACOPY ADD SWAP1 POP JUMPDEST POP SWAP1 POP PUSH1 0x0 JUMPDEST DUP3 DUP2 LT ISZERO PUSH2 0x4A1 JUMPI DUP8 PUSH2 0x455 DUP3 DUP7 PUSH2 0xA39 JUMP JUMPDEST DUP2 MLOAD DUP2 LT PUSH2 0x465 JUMPI PUSH2 0x465 PUSH2 0xA0D JUMP JUMPDEST PUSH1 0x20 ADD ADD MLOAD PUSH1 0xF8 SHR PUSH1 0xF8 SHL DUP3 DUP3 DUP2 MLOAD DUP2 LT PUSH2 0x482 JUMPI PUSH2 0x482 PUSH2 0xA0D JUMP JUMPDEST PUSH1 0x20 ADD ADD SWAP1 PUSH1 0x1 PUSH1 0x1 PUSH1 0xF8 SHL SUB NOT AND SWAP1 DUP2 PUSH1 0x0 BYTE SWAP1 MSTORE8 POP PUSH1 0x1 ADD PUSH2 0x442 JUMP JUMPDEST POP PUSH1 0x0 DUP1 SLOAD PUSH1 0x40 MLOAD PUSH4 0x13067D5 PUSH1 0xE1 SHL DUP2 MSTORE DUP4 SWAP3 SWAP2 PUSH1 0x1 PUSH1 0x1 PUSH1 0xA0 SHL SUB AND SWAP1 PUSH4 0x260CFAA SWAP1 PUSH2 0x4D4 SWAP1 DUP6 SWAP1 PUSH1 0x4 ADD PUSH2 0xA4C JUMP JUMPDEST PUSH1 0x20 PUSH1 0x40 MLOAD DUP1 DUP4 SUB DUP2 PUSH1 0x0 DUP8 GAS CALL ISZERO DUP1 ISZERO PUSH2 0x4F3 JUMPI RETURNDATASIZE PUSH1 0x0 DUP1 RETURNDATACOPY RETURNDATASIZE PUSH1 0x0 REVERT JUMPDEST POP POP POP POP PUSH1 0x40 MLOAD RETURNDATASIZE PUSH1 0x1F NOT PUSH1 0x1F DUP3 ADD AND DUP3 ADD DUP1 PUSH1 0x40 MSTORE POP DUP2 ADD SWAP1 PUSH2 0x517 SWAP2 SWAP1 PUSH2 0xA9A JUMP JUMPDEST SWAP1 POP DUP1 DUP9 DUP9 DUP2 MLOAD DUP2 LT PUSH2 0x52C JUMPI PUSH2 0x52C PUSH2 0xA0D JUMP JUMPDEST PUSH1 0x20 MUL PUSH1 0x20 ADD ADD DUP2 DUP2 MSTORE POP POP DUP1 PUSH32 0x7048737EAA1D4AAD6328A57AC89C84007F0956B04C6CDF9C75FC34042E459555 PUSH1 0x40 MLOAD DUP1 PUSH1 0x40 ADD PUSH1 0x40 MSTORE DUP1 DUP5 DUP2 MSTORE PUSH1 0x20 ADD PUSH1 0x0 DUP1 SHL DUP2 MSTORE POP PUSH1 0x1 PUSH1 0x0 DUP2 SLOAD DUP1 SWAP3 SWAP2 SWAP1 PUSH2 0x585 SWAP1 PUSH2 0xAB3 JUMP JUMPDEST SWAP2 SWAP1 POP SSTORE PUSH1 0x40 MLOAD PUSH2 0x597 SWAP3 SWAP2 SWAP1 PUSH2 0xACC JUMP JUMPDEST PUSH1 0x40 MLOAD DUP1 SWAP2 SUB SWAP1 LOG2 PUSH2 0x5A9 DUP5 DUP7 PUSH2 0xA39 JUMP JUMPDEST SWAP5 POP DUP7 PUSH2 0x5B5 DUP2 PUSH2 0xAB3 JUMP JUMPDEST SWAP8 POP POP POP POP POP POP PUSH2 0x35F JUMP JUMPDEST POP POP SWAP2 POP SWAP2 JUMP JUMPDEST PUSH1 0x0 DUP2 JUMPDEST PUSH1 0x1 DUP2 GT ISZERO PUSH2 0x7B6 JUMPI PUSH1 0x0 DUP1 JUMPDEST DUP3 PUSH2 0x5E5 DUP3 PUSH1 0x1 PUSH2 0xA39 JUMP JUMPDEST LT ISZERO PUSH2 0x74D JUMPI PUSH1 0x0 PUSH1 0x40 MLOAD DUP1 PUSH1 0x40 ADD PUSH1 0x40 MSTORE DUP1 DUP9 DUP5 DUP2 MLOAD DUP2 LT PUSH2 0x60A JUMPI PUSH2 0x60A PUSH2 0xA0D JUMP JUMPDEST PUSH1 0x20 MUL PUSH1 0x20 ADD ADD MLOAD DUP2 MSTORE PUSH1 0x20 ADD DUP9 DUP5 PUSH1 0x1 PUSH2 0x625 SWAP2 SWAP1 PUSH2 0xA39 JUMP JUMPDEST DUP2 MLOAD DUP2 LT PUSH2 0x635 JUMPI PUSH2 0x635 PUSH2 0xA0D JUMP JUMPDEST PUSH1 0x20 SWAP1 DUP2 MUL SWAP2 SWAP1 SWAP2 ADD ADD MLOAD SWAP1 MSTORE PUSH1 0x0 DUP1 SLOAD PUSH1 0x40 MLOAD PUSH4 0x142736B PUSH1 0xE4 SHL DUP2 MSTORE SWAP3 SWAP4 POP SWAP1 SWAP2 PUSH1 0x1 PUSH1 0x1 PUSH1 0xA0 SHL SUB SWAP1 SWAP2 AND SWAP1 PUSH4 0x142736B0 SWAP1 PUSH2 0x678 SWAP1 DUP6 SWAP1 PUSH1 0x4 ADD PUSH2 0x83A JUMP JUMPDEST PUSH1 0x20 PUSH1 0x40 MLOAD DUP1 DUP4 SUB DUP2 PUSH1 0x0 DUP8 GAS CALL ISZERO DUP1 ISZERO PUSH2 0x697 JUMPI RETURNDATASIZE PUSH1 0x0 DUP1 RETURNDATACOPY RETURNDATASIZE PUSH1 0x0 REVERT JUMPDEST POP POP POP POP PUSH1 0x40 MLOAD RETURNDATASIZE PUSH1 0x1F NOT PUSH1 0x1F DUP3 ADD AND DUP3 ADD DUP1 PUSH1 0x40 MSTORE POP DUP2 ADD SWAP1 PUSH2 0x6BB SWAP2 SWAP1 PUSH2 0xA9A JUMP JUMPDEST SWAP1 POP DUP1 DUP9 DUP6 DUP2 MLOAD DUP2 LT PUSH2 0x6D0 JUMPI PUSH2 0x6D0 PUSH2 0xA0D JUMP JUMPDEST PUSH1 0x20 SWAP1 DUP2 MUL SWAP2 SWAP1 SWAP2 ADD ADD MSTORE PUSH1 0x1 DUP1 SLOAD DUP3 SWAP2 PUSH32 0x7048737EAA1D4AAD6328A57AC89C84007F0956B04C6CDF9C75FC34042E459555 SWAP2 DUP6 SWAP2 PUSH1 0x0 PUSH2 0x710 DUP4 PUSH2 0xAB3 JUMP JUMPDEST SWAP2 SWAP1 POP SSTORE PUSH1 0x40 MLOAD PUSH2 0x722 SWAP3 SWAP2 SWAP1 PUSH2 0xACC JUMP JUMPDEST PUSH1 0x40 MLOAD DUP1 SWAP2 SUB SWAP1 LOG2 DUP4 PUSH2 0x734 DUP2 PUSH2 0xAB3 JUMP JUMPDEST SWAP5 POP POP POP POP PUSH1 0x2 DUP2 PUSH2 0x746 SWAP2 SWAP1 PUSH2 0xA39 JUMP JUMPDEST SWAP1 POP PUSH2 0x5D9 JUMP JUMPDEST POP PUSH2 0x759 PUSH1 0x2 DUP4 PUSH2 0xAE7 JUMP JUMPDEST PUSH1 0x1 SUB PUSH2 0x7AF JUMPI DUP5 PUSH2 0x76C PUSH1 0x1 DUP5 PUSH2 0xB09 JUMP JUMPDEST DUP2 MLOAD DUP2 LT PUSH2 0x77C JUMPI PUSH2 0x77C PUSH2 0xA0D JUMP JUMPDEST PUSH1 0x20 MUL PUSH1 0x20 ADD ADD MLOAD DUP6 DUP3 DUP2 MLOAD DUP2 LT PUSH2 0x796 JUMPI PUSH2 0x796 PUSH2 0xA0D JUMP JUMPDEST PUSH1 0x20 SWAP1 DUP2 MUL SWAP2 SWAP1 SWAP2 ADD ADD MSTORE DUP1 PUSH2 0x7AB DUP2 PUSH2 0xAB3 JUMP JUMPDEST SWAP2 POP POP JUMPDEST SWAP1 POP PUSH2 0x5CC JUMP JUMPDEST DUP4 PUSH1 0x0 DUP2 MLOAD DUP2 LT PUSH2 0x7C9 JUMPI PUSH2 0x7C9 PUSH2 0xA0D JUMP JUMPDEST PUSH1 0x20 MUL PUSH1 0x20 ADD ADD MLOAD SWAP2 POP POP SWAP3 SWAP2 POP POP JUMP JUMPDEST PUSH1 0x40 MLOAD DUP1 PUSH1 0x40 ADD PUSH1 0x40 MSTORE DUP1 PUSH1 0x2 SWAP1 PUSH1 0x20 DUP3 MUL DUP1 CALLDATASIZE DUP4 CALLDATACOPY POP SWAP2 SWAP3 SWAP2 POP POP JUMP JUMPDEST PUSH1 0x0 PUSH1 0x20 DUP3 DUP5 SUB SLT ISZERO PUSH2 0x80A JUMPI PUSH1 0x0 DUP1 REVERT JUMPDEST POP CALLDATALOAD SWAP2 SWAP1 POP JUMP JUMPDEST DUP1 PUSH1 0x0 JUMPDEST PUSH1 0x2 DUP2 LT ISZERO PUSH2 0x834 JUMPI DUP2 MLOAD DUP5 MSTORE PUSH1 0x20 SWAP4 DUP5 ADD SWAP4 SWAP1 SWAP2 ADD SWAP1 PUSH1 0x1 ADD PUSH2 0x815 JUMP JUMPDEST POP POP POP POP JUMP JUMPDEST PUSH1 0x40 DUP2 ADD PUSH2 0x147 DUP3 DUP5 PUSH2 0x811 JUMP JUMPDEST PUSH1 0x0 DUP1 DUP4 PUSH1 0x1F DUP5 ADD SLT PUSH2 0x85A JUMPI PUSH1 0x0 DUP1 REVERT JUMPDEST POP DUP2 CALLDATALOAD PUSH8 0xFFFFFFFFFFFFFFFF DUP2 GT ISZERO PUSH2 0x872 JUMPI PUSH1 0x0 DUP1 REVERT JUMPDEST PUSH1 0x20 DUP4 ADD SWAP2 POP DUP4 PUSH1 0x20 DUP3 DUP6 ADD ADD GT ISZERO PUSH2 0x88A JUMPI PUSH1 0x0 DUP1 REVERT JUMPDEST SWAP3 POP SWAP3 SWAP1 POP JUMP JUMPDEST PUSH1 0x0 DUP1 PUSH1 0x0 PUSH1 0x40 DUP5 DUP7 SUB SLT ISZERO PUSH2 0x8A6 JUMPI PUSH1 0x0 DUP1 REVERT JUMPDEST DUP4 CALLDATALOAD SWAP3 POP PUSH1 0x20 DUP5 ADD CALLDATALOAD PUSH8 0xFFFFFFFFFFFFFFFF DUP2 GT ISZERO PUSH2 0x8C4 JUMPI PUSH1 0x0 DUP1 REVERT JUMPDEST PUSH2 0x8D0 DUP7 DUP3 DUP8 ADD PUSH2 0x848 JUMP JUMPDEST SWAP5 SWAP8 SWAP1 SWAP7 POP SWAP4 SWAP5 POP POP POP POP JUMP JUMPDEST PUSH1 0x0 DUP1 PUSH1 0x20 DUP4 DUP6 SUB SLT ISZERO PUSH2 0x8F0 JUMPI PUSH1 0x0 DUP1 REVERT JUMPDEST DUP3 CALLDATALOAD PUSH8 0xFFFFFFFFFFFFFFFF DUP2 GT ISZERO PUSH2 0x907 JUMPI PUSH1 0x0 DUP1 REVERT JUMPDEST PUSH2 0x913 DUP6 DUP3 DUP7 ADD PUSH2 0x848 JUMP JUMPDEST SWAP1 SWAP7 SWAP1 SWAP6 POP SWAP4 POP POP POP POP JUMP JUMPDEST PUSH4 0x4E487B71 PUSH1 0xE0 SHL PUSH1 0x0 MSTORE PUSH1 0x41 PUSH1 0x4 MSTORE PUSH1 0x24 PUSH1 0x0 REVERT JUMPDEST PUSH1 0x0 PUSH1 0x40 DUP3 DUP5 SUB SLT ISZERO PUSH2 0x947 JUMPI PUSH1 0x0 DUP1 REVERT JUMPDEST DUP3 PUSH1 0x1F DUP4 ADD SLT PUSH2 0x956 JUMPI PUSH1 0x0 DUP1 REVERT JUMPDEST PUSH1 0x40 MLOAD PUSH1 0x40 DUP2 ADD DUP2 DUP2 LT PUSH8 0xFFFFFFFFFFFFFFFF DUP3 GT OR ISZERO PUSH2 0x979 JUMPI PUSH2 0x979 PUSH2 0x91F JUMP JUMPDEST DUP1 PUSH1 0x40 MSTORE POP DUP1 PUSH1 0x40 DUP5 ADD DUP6 DUP2 GT ISZERO PUSH2 0x990 JUMPI PUSH1 0x0 DUP1 REVERT JUMPDEST DUP5 JUMPDEST DUP2 DUP2 LT ISZERO PUSH2 0x9AA JUMPI DUP1 MLOAD DUP4 MSTORE PUSH1 0x20 SWAP3 DUP4 ADD SWAP3 ADD PUSH2 0x992 JUMP JUMPDEST POP SWAP2 SWAP6 SWAP5 POP POP POP POP POP JUMP JUMPDEST PUSH1 0x0 PUSH1 0x20 DUP3 DUP5 SUB SLT ISZERO PUSH2 0x9C7 JUMPI PUSH1 0x0 DUP1 REVERT JUMPDEST DUP2 MLOAD DUP1 ISZERO ISZERO DUP2 EQ PUSH2 0x9D7 JUMPI PUSH1 0x0 DUP1 REVERT JUMPDEST SWAP4 SWAP3 POP POP POP JUMP JUMPDEST PUSH1 0x20 DUP2 MSTORE DUP2 PUSH1 0x20 DUP3 ADD MSTORE DUP2 DUP4 PUSH1 0x40 DUP4 ADD CALLDATACOPY PUSH1 0x0 DUP2 DUP4 ADD PUSH1 0x40 SWAP1 DUP2 ADD SWAP2 SWAP1 SWAP2 MSTORE PUSH1 0x1F SWAP1 SWAP3 ADD PUSH1 0x1F NOT AND ADD ADD SWAP2 SWAP1 POP JUMP JUMPDEST PUSH4 0x4E487B71 PUSH1 0xE0 SHL PUSH1 0x0 MSTORE PUSH1 0x32 PUSH1 0x4 MSTORE PUSH1 0x24 PUSH1 0x0 REVERT JUMPDEST PUSH4 0x4E487B71 PUSH1 0xE0 SHL PUSH1 0x0 MSTORE PUSH1 0x11 PUSH1 0x4 MSTORE PUSH1 0x24 PUSH1 0x0 REVERT JUMPDEST DUP1 DUP3 ADD DUP1 DUP3 GT ISZERO PUSH2 0x147 JUMPI PUSH2 0x147 PUSH2 0xA23 JUMP JUMPDEST PUSH1 0x20 DUP2 MSTORE PUSH1 0x0 DUP3 MLOAD DUP1 PUSH1 0x20 DUP5 ADD MSTORE PUSH1 0x0 JUMPDEST DUP2 DUP2 LT ISZERO PUSH2 0xA7A JUMPI PUSH1 0x20 DUP2 DUP7 ADD DUP2 ADD MLOAD PUSH1 0x40 DUP7 DUP5 ADD ADD MSTORE ADD PUSH2 0xA5D JUMP JUMPDEST POP PUSH1 0x0 PUSH1 0x40 DUP3 DUP6 ADD ADD MSTORE PUSH1 0x40 PUSH1 0x1F NOT PUSH1 0x1F DUP4 ADD AND DUP5 ADD ADD SWAP2 POP POP SWAP3 SWAP2 POP POP JUMP JUMPDEST PUSH1 0x0 PUSH1 0x20 DUP3 DUP5 SUB SLT ISZERO PUSH2 0xAAC JUMPI PUSH1 0x0 DUP1 REVERT JUMPDEST POP MLOAD SWAP2 SWAP1 POP JUMP JUMPDEST PUSH1 0x0 PUSH1 0x1 DUP3 ADD PUSH2 0xAC5 JUMPI PUSH2 0xAC5 PUSH2 0xA23 JUMP JUMPDEST POP PUSH1 0x1 ADD SWAP1 JUMP JUMPDEST PUSH1 0x60 DUP2 ADD PUSH2 0xADA DUP3 DUP6 PUSH2 0x811 JUMP JUMPDEST DUP3 PUSH1 0x40 DUP4 ADD MSTORE SWAP4 SWAP3 POP POP POP JUMP JUMPDEST PUSH1 0x0 DUP3 PUSH2 0xB04 JUMPI PUSH4 0x4E487B71 PUSH1 0xE0 SHL PUSH1 0x0 MSTORE PUSH1 0x12 PUSH1 0x4 MSTORE PUSH1 0x24 PUSH1 0x0 REVERT JUMPDEST POP MOD SWAP1 JUMP JUMPDEST DUP2 DUP2 SUB DUP2 DUP2 GT ISZERO PUSH2 0x147 JUMPI PUSH2 0x147 PUSH2 0xA23 JUMP INVALID LOG2 PUSH5 0x6970667358 0x22 SLT KECCAK256 PUSH29 0x8D2CBB6C9637E1B6230FF69C18741E274AB323746B3A78F0582E6C56B7 MLOAD LOG2 PUSH5 0x736F6C6343 STOP ADDMOD SHR STOP CALLER "
                },
                "methodIdentifiers": {
                    "exists(bytes32)": "38a699a4",
                    "getComponents(bytes32)": "1d03df5e",
                    "press(string)": "e72d5e5f",
                    "storeEncryptedData(bytes32,bytes)": "ad7aea10"
                }
            }
        }
    }
}