{
    "contracts/decxDAG_units/DecxRegistry.sol": {
        "DecxRegistry": {
            "abi": [
                {
                    "inputs": [
                        {
                            "internalType": "contract IUTF8Validator",
                            "name": "_utf8ValidatorAddress",
                            "type": "address"
                        }
                    ],
                    "stateMutability": "nonpayable",
                    "type": "constructor"
                },
                {
                    "inputs": [],
                    "name": "DecxRegistry_InvalidHash",
                    "type": "error"
                },
                {
                    "inputs": [],
                    "name": "DecxRegistry_ZeroHashNotAllowed",
                    "type": "error"
                },
                {
                    "inputs": [
                        {
                            "internalType": "string",
                            "name": "character",
                            "type": "string"
                        }
                    ],
                    "name": "addCharacterHash",
                    "outputs": [
                        {
                            "internalType": "bytes32",
                            "name": "",
                            "type": "bytes32"
                        }
                    ],
                    "stateMutability": "nonpayable",
                    "type": "function"
                },
                {
                    "inputs": [
                        {
                            "internalType": "bytes32[2]",
                            "name": "hashes",
                            "type": "bytes32[2]"
                        }
                    ],
                    "name": "addHashesHash",
                    "outputs": [
                        {
                            "internalType": "bytes32",
                            "name": "",
                            "type": "bytes32"
                        }
                    ],
                    "stateMutability": "nonpayable",
                    "type": "function"
                },
                {
                    "inputs": [
                        {
                            "internalType": "bytes32",
                            "name": "",
                            "type": "bytes32"
                        },
                        {
                            "internalType": "uint256",
                            "name": "",
                            "type": "uint256"
                        }
                    ],
                    "name": "encryptionPathsMap",
                    "outputs": [
                        {
                            "internalType": "bytes32",
                            "name": "",
                            "type": "bytes32"
                        }
                    ],
                    "stateMutability": "view",
                    "type": "function"
                },
                {
                    "inputs": [
                        {
                            "internalType": "bytes32",
                            "name": "hash",
                            "type": "bytes32"
                        }
                    ],
                    "name": "getComponents",
                    "outputs": [
                        {
                            "internalType": "bytes32[2]",
                            "name": "",
                            "type": "bytes32[2]"
                        }
                    ],
                    "stateMutability": "view",
                    "type": "function"
                },
                {
                    "inputs": [
                        {
                            "internalType": "string",
                            "name": "character",
                            "type": "string"
                        }
                    ],
                    "name": "getHashForCharacter",
                    "outputs": [
                        {
                            "internalType": "bytes32",
                            "name": "",
                            "type": "bytes32"
                        }
                    ],
                    "stateMutability": "view",
                    "type": "function"
                },
                {
                    "inputs": [
                        {
                            "internalType": "bytes32[2]",
                            "name": "hashes",
                            "type": "bytes32[2]"
                        }
                    ],
                    "name": "getHashForHashes",
                    "outputs": [
                        {
                            "internalType": "bytes32",
                            "name": "",
                            "type": "bytes32"
                        }
                    ],
                    "stateMutability": "view",
                    "type": "function"
                },
                {
                    "inputs": [
                        {
                            "internalType": "bytes32",
                            "name": "hash",
                            "type": "bytes32"
                        }
                    ],
                    "name": "hashExists",
                    "outputs": [
                        {
                            "internalType": "bool",
                            "name": "",
                            "type": "bool"
                        }
                    ],
                    "stateMutability": "view",
                    "type": "function"
                },
                {
                    "inputs": [
                        {
                            "internalType": "bytes32",
                            "name": "",
                            "type": "bytes32"
                        }
                    ],
                    "name": "hashExistsMap",
                    "outputs": [
                        {
                            "internalType": "bool",
                            "name": "",
                            "type": "bool"
                        }
                    ],
                    "stateMutability": "view",
                    "type": "function"
                },
                {
                    "inputs": [
                        {
                            "internalType": "string",
                            "name": "",
                            "type": "string"
                        }
                    ],
                    "name": "hashLookupMap",
                    "outputs": [
                        {
                            "internalType": "bytes32",
                            "name": "",
                            "type": "bytes32"
                        }
                    ],
                    "stateMutability": "view",
                    "type": "function"
                },
                {
                    "inputs": [
                        {
                            "internalType": "bytes32",
                            "name": "",
                            "type": "bytes32"
                        },
                        {
                            "internalType": "bytes32",
                            "name": "",
                            "type": "bytes32"
                        }
                    ],
                    "name": "hashesLookupMap",
                    "outputs": [
                        {
                            "internalType": "bytes32",
                            "name": "",
                            "type": "bytes32"
                        }
                    ],
                    "stateMutability": "view",
                    "type": "function"
                }
            ],
            "evm": {
                "bytecode": {
                    "linkReferences": {},
                    "object": "60a0604052348015600f57600080fd5b50604051610821380380610821833981016040819052602c91603c565b6001600160a01b0316608052606a565b600060208284031215604d57600080fd5b81516001600160a01b0381168114606357600080fd5b9392505050565b60805161079c6100856000396000610217015261079c6000f3fe608060405234801561001057600080fd5b506004361061009e5760003560e01c8063b4785c8111610066578063b4785c811461013e578063b535b5c314610171578063e49c7f0414610194578063eb7f35b4146101bf578063edbc2749146101ea57600080fd5b80630260cfaa146100a3578063142736b0146100c95780631c1a8356146100dc5780631d03df5e146100ef578063352b1d011461010f575b600080fd5b6100b66100b1366004610550565b6101fd565b6040519081526020015b60405180910390f35b6100b66100d73660046105c4565b610324565b6100b66100ea3660046105ec565b610448565b6101026100fd36600461060e565b61046d565b6040516100c09190610627565b6100b661011d3660046105c4565b80356000908152600260209081526040808320938201358352929052205490565b61016161014c36600461060e565b60006020819052908152604090205460ff1681565b60405190151581526020016100c0565b61016161017f36600461060e565b60009081526020819052604090205460ff1690565b6100b66101a23660046105ec565b600260209081526000928352604080842090915290825290205481565b6100b66101cd36600461066e565b805160208183018101805160018252928201919093012091525481565b6100b66101f8366004610550565b6104b4565b604051632a2e3c4960e11b81526000906001600160a01b037f0000000000000000000000000000000000000000000000000000000000000000169063545c78929061024e9086908690600401610727565b60006040518083038186803b15801561026657600080fd5b505afa15801561027a573d6000803e3d6000fd5b50505050600060018484604051610292929190610756565b90815260405190819003602001902054905080156102b157905061031e565b600084846040516020016102c6929190610727565b60408051601f198184030181528282528051602091820120600081815291829052919020805460ff19166001908117909155909250829161030a9088908890610756565b908152604051908190036020019020559150505b92915050565b600081356020830135811580610338575080155b15610356576040516313e2cf8760e21b815260040160405180910390fd5b60008281526020819052604090205460ff161580610383575060008181526020819052604090205460ff16155b156103a15760405163057975e360e11b815260040160405180910390fd5b600082815260026020908152604080832084845290915290205480156103c957949350505050565b604080516020810185905290810183905260009060600160408051601f1981840301815291815281516020928301206000818152808452828120805460ff191660011790558781526002808552838220888352855283822083905582825260039094529190912090925061043e9188906104df565b5095945050505050565b6003602052816000526040600020816002811061046457600080fd5b01549150829050565b61047561051d565b600082815260036020526040908190208151808301928390529160029082845b8154815260200190600101908083116104955750505050509050919050565b6000600183836040516104c8929190610756565b908152602001604051809103902054905092915050565b826002810192821561050d579160200282015b8281111561050d5782358255916020019190600101906104f2565b5061051992915061053b565b5090565b60405180604001604052806002906020820280368337509192915050565b5b80821115610519576000815560010161053c565b6000806020838503121561056357600080fd5b823567ffffffffffffffff81111561057a57600080fd5b8301601f8101851361058b57600080fd5b803567ffffffffffffffff8111156105a257600080fd5b8560208284010111156105b457600080fd5b6020919091019590945092505050565b6000604082840312156105d657600080fd5b826040830111156105e657600080fd5b50919050565b600080604083850312156105ff57600080fd5b50508035926020909101359150565b60006020828403121561062057600080fd5b5035919050565b60408101818360005b600281101561064f578151835260209283019290910190600101610630565b50505092915050565b634e487b7160e01b600052604160045260246000fd5b60006020828403121561068057600080fd5b813567ffffffffffffffff81111561069757600080fd5b8201601f810184136106a857600080fd5b803567ffffffffffffffff8111156106c2576106c2610658565b604051601f8201601f19908116603f0116810167ffffffffffffffff811182821017156106f1576106f1610658565b60405281815282820160200186101561070957600080fd5b81602084016020830137600091810160200191909152949350505050565b60208152816020820152818360408301376000818301604090810191909152601f909201601f19160101919050565b818382376000910190815291905056fea26469706673582212207d85f24388df1463815ea21fc2ef3971066b14b661e65fe11748d1314f0f6d5664736f6c634300081c0033",
                    "opcodes": "PUSH1 0xA0 PUSH1 0x40 MSTORE CALLVALUE DUP1 ISZERO PUSH1 0xF JUMPI PUSH1 0x0 DUP1 REVERT JUMPDEST POP PUSH1 0x40 MLOAD PUSH2 0x821 CODESIZE SUB DUP1 PUSH2 0x821 DUP4 CODECOPY DUP2 ADD PUSH1 0x40 DUP2 SWAP1 MSTORE PUSH1 0x2C SWAP2 PUSH1 0x3C JUMP JUMPDEST PUSH1 0x1 PUSH1 0x1 PUSH1 0xA0 SHL SUB AND PUSH1 0x80 MSTORE PUSH1 0x6A JUMP JUMPDEST PUSH1 0x0 PUSH1 0x20 DUP3 DUP5 SUB SLT ISZERO PUSH1 0x4D JUMPI PUSH1 0x0 DUP1 REVERT JUMPDEST DUP2 MLOAD PUSH1 0x1 PUSH1 0x1 PUSH1 0xA0 SHL SUB DUP2 AND DUP2 EQ PUSH1 0x63 JUMPI PUSH1 0x0 DUP1 REVERT JUMPDEST SWAP4 SWAP3 POP POP POP JUMP JUMPDEST PUSH1 0x80 MLOAD PUSH2 0x79C PUSH2 0x85 PUSH1 0x0 CODECOPY PUSH1 0x0 PUSH2 0x217 ADD MSTORE PUSH2 0x79C PUSH1 0x0 RETURN INVALID PUSH1 0x80 PUSH1 0x40 MSTORE CALLVALUE DUP1 ISZERO PUSH2 0x10 JUMPI PUSH1 0x0 DUP1 REVERT JUMPDEST POP PUSH1 0x4 CALLDATASIZE LT PUSH2 0x9E JUMPI PUSH1 0x0 CALLDATALOAD PUSH1 0xE0 SHR DUP1 PUSH4 0xB4785C81 GT PUSH2 0x66 JUMPI DUP1 PUSH4 0xB4785C81 EQ PUSH2 0x13E JUMPI DUP1 PUSH4 0xB535B5C3 EQ PUSH2 0x171 JUMPI DUP1 PUSH4 0xE49C7F04 EQ PUSH2 0x194 JUMPI DUP1 PUSH4 0xEB7F35B4 EQ PUSH2 0x1BF JUMPI DUP1 PUSH4 0xEDBC2749 EQ PUSH2 0x1EA JUMPI PUSH1 0x0 DUP1 REVERT JUMPDEST DUP1 PUSH4 0x260CFAA EQ PUSH2 0xA3 JUMPI DUP1 PUSH4 0x142736B0 EQ PUSH2 0xC9 JUMPI DUP1 PUSH4 0x1C1A8356 EQ PUSH2 0xDC JUMPI DUP1 PUSH4 0x1D03DF5E EQ PUSH2 0xEF JUMPI DUP1 PUSH4 0x352B1D01 EQ PUSH2 0x10F JUMPI JUMPDEST PUSH1 0x0 DUP1 REVERT JUMPDEST PUSH2 0xB6 PUSH2 0xB1 CALLDATASIZE PUSH1 0x4 PUSH2 0x550 JUMP JUMPDEST PUSH2 0x1FD JUMP JUMPDEST PUSH1 0x40 MLOAD SWAP1 DUP2 MSTORE PUSH1 0x20 ADD JUMPDEST PUSH1 0x40 MLOAD DUP1 SWAP2 SUB SWAP1 RETURN JUMPDEST PUSH2 0xB6 PUSH2 0xD7 CALLDATASIZE PUSH1 0x4 PUSH2 0x5C4 JUMP JUMPDEST PUSH2 0x324 JUMP JUMPDEST PUSH2 0xB6 PUSH2 0xEA CALLDATASIZE PUSH1 0x4 PUSH2 0x5EC JUMP JUMPDEST PUSH2 0x448 JUMP JUMPDEST PUSH2 0x102 PUSH2 0xFD CALLDATASIZE PUSH1 0x4 PUSH2 0x60E JUMP JUMPDEST PUSH2 0x46D JUMP JUMPDEST PUSH1 0x40 MLOAD PUSH2 0xC0 SWAP2 SWAP1 PUSH2 0x627 JUMP JUMPDEST PUSH2 0xB6 PUSH2 0x11D CALLDATASIZE PUSH1 0x4 PUSH2 0x5C4 JUMP JUMPDEST DUP1 CALLDATALOAD PUSH1 0x0 SWAP1 DUP2 MSTORE PUSH1 0x2 PUSH1 0x20 SWAP1 DUP2 MSTORE PUSH1 0x40 DUP1 DUP4 KECCAK256 SWAP4 DUP3 ADD CALLDATALOAD DUP4 MSTORE SWAP3 SWAP1 MSTORE KECCAK256 SLOAD SWAP1 JUMP JUMPDEST PUSH2 0x161 PUSH2 0x14C CALLDATASIZE PUSH1 0x4 PUSH2 0x60E JUMP JUMPDEST PUSH1 0x0 PUSH1 0x20 DUP2 SWAP1 MSTORE SWAP1 DUP2 MSTORE PUSH1 0x40 SWAP1 KECCAK256 SLOAD PUSH1 0xFF AND DUP2 JUMP JUMPDEST PUSH1 0x40 MLOAD SWAP1 ISZERO ISZERO DUP2 MSTORE PUSH1 0x20 ADD PUSH2 0xC0 JUMP JUMPDEST PUSH2 0x161 PUSH2 0x17F CALLDATASIZE PUSH1 0x4 PUSH2 0x60E JUMP JUMPDEST PUSH1 0x0 SWAP1 DUP2 MSTORE PUSH1 0x20 DUP2 SWAP1 MSTORE PUSH1 0x40 SWAP1 KECCAK256 SLOAD PUSH1 0xFF AND SWAP1 JUMP JUMPDEST PUSH2 0xB6 PUSH2 0x1A2 CALLDATASIZE PUSH1 0x4 PUSH2 0x5EC JUMP JUMPDEST PUSH1 0x2 PUSH1 0x20 SWAP1 DUP2 MSTORE PUSH1 0x0 SWAP3 DUP4 MSTORE PUSH1 0x40 DUP1 DUP5 KECCAK256 SWAP1 SWAP2 MSTORE SWAP1 DUP3 MSTORE SWAP1 KECCAK256 SLOAD DUP2 JUMP JUMPDEST PUSH2 0xB6 PUSH2 0x1CD CALLDATASIZE PUSH1 0x4 PUSH2 0x66E JUMP JUMPDEST DUP1 MLOAD PUSH1 0x20 DUP2 DUP4 ADD DUP2 ADD DUP1 MLOAD PUSH1 0x1 DUP3 MSTORE SWAP3 DUP3 ADD SWAP2 SWAP1 SWAP4 ADD KECCAK256 SWAP2 MSTORE SLOAD DUP2 JUMP JUMPDEST PUSH2 0xB6 PUSH2 0x1F8 CALLDATASIZE PUSH1 0x4 PUSH2 0x550 JUMP JUMPDEST PUSH2 0x4B4 JUMP JUMPDEST PUSH1 0x40 MLOAD PUSH4 0x2A2E3C49 PUSH1 0xE1 SHL DUP2 MSTORE PUSH1 0x0 SWAP1 PUSH1 0x1 PUSH1 0x1 PUSH1 0xA0 SHL SUB PUSH32 0x0 AND SWAP1 PUSH4 0x545C7892 SWAP1 PUSH2 0x24E SWAP1 DUP7 SWAP1 DUP7 SWAP1 PUSH1 0x4 ADD PUSH2 0x727 JUMP JUMPDEST PUSH1 0x0 PUSH1 0x40 MLOAD DUP1 DUP4 SUB DUP2 DUP7 DUP1 EXTCODESIZE ISZERO DUP1 ISZERO PUSH2 0x266 JUMPI PUSH1 0x0 DUP1 REVERT JUMPDEST POP GAS STATICCALL ISZERO DUP1 ISZERO PUSH2 0x27A JUMPI RETURNDATASIZE PUSH1 0x0 DUP1 RETURNDATACOPY RETURNDATASIZE PUSH1 0x0 REVERT JUMPDEST POP POP POP POP PUSH1 0x0 PUSH1 0x1 DUP5 DUP5 PUSH1 0x40 MLOAD PUSH2 0x292 SWAP3 SWAP2 SWAP1 PUSH2 0x756 JUMP JUMPDEST SWAP1 DUP2 MSTORE PUSH1 0x40 MLOAD SWAP1 DUP2 SWAP1 SUB PUSH1 0x20 ADD SWAP1 KECCAK256 SLOAD SWAP1 POP DUP1 ISZERO PUSH2 0x2B1 JUMPI SWAP1 POP PUSH2 0x31E JUMP JUMPDEST PUSH1 0x0 DUP5 DUP5 PUSH1 0x40 MLOAD PUSH1 0x20 ADD PUSH2 0x2C6 SWAP3 SWAP2 SWAP1 PUSH2 0x727 JUMP JUMPDEST PUSH1 0x40 DUP1 MLOAD PUSH1 0x1F NOT DUP2 DUP5 SUB ADD DUP2 MSTORE DUP3 DUP3 MSTORE DUP1 MLOAD PUSH1 0x20 SWAP2 DUP3 ADD KECCAK256 PUSH1 0x0 DUP2 DUP2 MSTORE SWAP2 DUP3 SWAP1 MSTORE SWAP2 SWAP1 KECCAK256 DUP1 SLOAD PUSH1 0xFF NOT AND PUSH1 0x1 SWAP1 DUP2 OR SWAP1 SWAP2 SSTORE SWAP1 SWAP3 POP DUP3 SWAP2 PUSH2 0x30A SWAP1 DUP9 SWAP1 DUP9 SWAP1 PUSH2 0x756 JUMP JUMPDEST SWAP1 DUP2 MSTORE PUSH1 0x40 MLOAD SWAP1 DUP2 SWAP1 SUB PUSH1 0x20 ADD SWAP1 KECCAK256 SSTORE SWAP2 POP POP JUMPDEST SWAP3 SWAP2 POP POP JUMP JUMPDEST PUSH1 0x0 DUP2 CALLDATALOAD PUSH1 0x20 DUP4 ADD CALLDATALOAD DUP2 ISZERO DUP1 PUSH2 0x338 JUMPI POP DUP1 ISZERO JUMPDEST ISZERO PUSH2 0x356 JUMPI PUSH1 0x40 MLOAD PUSH4 0x13E2CF87 PUSH1 0xE2 SHL DUP2 MSTORE PUSH1 0x4 ADD PUSH1 0x40 MLOAD DUP1 SWAP2 SUB SWAP1 REVERT JUMPDEST PUSH1 0x0 DUP3 DUP2 MSTORE PUSH1 0x20 DUP2 SWAP1 MSTORE PUSH1 0x40 SWAP1 KECCAK256 SLOAD PUSH1 0xFF AND ISZERO DUP1 PUSH2 0x383 JUMPI POP PUSH1 0x0 DUP2 DUP2 MSTORE PUSH1 0x20 DUP2 SWAP1 MSTORE PUSH1 0x40 SWAP1 KECCAK256 SLOAD PUSH1 0xFF AND ISZERO JUMPDEST ISZERO PUSH2 0x3A1 JUMPI PUSH1 0x40 MLOAD PUSH4 0x57975E3 PUSH1 0xE1 SHL DUP2 MSTORE PUSH1 0x4 ADD PUSH1 0x40 MLOAD DUP1 SWAP2 SUB SWAP1 REVERT JUMPDEST PUSH1 0x0 DUP3 DUP2 MSTORE PUSH1 0x2 PUSH1 0x20 SWAP1 DUP2 MSTORE PUSH1 0x40 DUP1 DUP4 KECCAK256 DUP5 DUP5 MSTORE SWAP1 SWAP2 MSTORE SWAP1 KECCAK256 SLOAD DUP1 ISZERO PUSH2 0x3C9 JUMPI SWAP5 SWAP4 POP POP POP POP JUMP JUMPDEST PUSH1 0x40 DUP1 MLOAD PUSH1 0x20 DUP2 ADD DUP6 SWAP1 MSTORE SWAP1 DUP2 ADD DUP4 SWAP1 MSTORE PUSH1 0x0 SWAP1 PUSH1 0x60 ADD PUSH1 0x40 DUP1 MLOAD PUSH1 0x1F NOT DUP2 DUP5 SUB ADD DUP2 MSTORE SWAP2 DUP2 MSTORE DUP2 MLOAD PUSH1 0x20 SWAP3 DUP4 ADD KECCAK256 PUSH1 0x0 DUP2 DUP2 MSTORE DUP1 DUP5 MSTORE DUP3 DUP2 KECCAK256 DUP1 SLOAD PUSH1 0xFF NOT AND PUSH1 0x1 OR SWAP1 SSTORE DUP8 DUP2 MSTORE PUSH1 0x2 DUP1 DUP6 MSTORE DUP4 DUP3 KECCAK256 DUP9 DUP4 MSTORE DUP6 MSTORE DUP4 DUP3 KECCAK256 DUP4 SWAP1 SSTORE DUP3 DUP3 MSTORE PUSH1 0x3 SWAP1 SWAP5 MSTORE SWAP2 SWAP1 SWAP2 KECCAK256 SWAP1 SWAP3 POP PUSH2 0x43E SWAP2 DUP9 SWAP1 PUSH2 0x4DF JUMP JUMPDEST POP SWAP6 SWAP5 POP POP POP POP POP JUMP JUMPDEST PUSH1 0x3 PUSH1 0x20 MSTORE DUP2 PUSH1 0x0 MSTORE PUSH1 0x40 PUSH1 0x0 KECCAK256 DUP2 PUSH1 0x2 DUP2 LT PUSH2 0x464 JUMPI PUSH1 0x0 DUP1 REVERT JUMPDEST ADD SLOAD SWAP2 POP DUP3 SWAP1 POP JUMP JUMPDEST PUSH2 0x475 PUSH2 0x51D JUMP JUMPDEST PUSH1 0x0 DUP3 DUP2 MSTORE PUSH1 0x3 PUSH1 0x20 MSTORE PUSH1 0x40 SWAP1 DUP2 SWAP1 KECCAK256 DUP2 MLOAD DUP1 DUP4 ADD SWAP3 DUP4 SWAP1 MSTORE SWAP2 PUSH1 0x2 SWAP1 DUP3 DUP5 JUMPDEST DUP2 SLOAD DUP2 MSTORE PUSH1 0x20 ADD SWAP1 PUSH1 0x1 ADD SWAP1 DUP1 DUP4 GT PUSH2 0x495 JUMPI POP POP POP POP POP SWAP1 POP SWAP2 SWAP1 POP JUMP JUMPDEST PUSH1 0x0 PUSH1 0x1 DUP4 DUP4 PUSH1 0x40 MLOAD PUSH2 0x4C8 SWAP3 SWAP2 SWAP1 PUSH2 0x756 JUMP JUMPDEST SWAP1 DUP2 MSTORE PUSH1 0x20 ADD PUSH1 0x40 MLOAD DUP1 SWAP2 SUB SWAP1 KECCAK256 SLOAD SWAP1 POP SWAP3 SWAP2 POP POP JUMP JUMPDEST DUP3 PUSH1 0x2 DUP2 ADD SWAP3 DUP3 ISZERO PUSH2 0x50D JUMPI SWAP2 PUSH1 0x20 MUL DUP3 ADD JUMPDEST DUP3 DUP2 GT ISZERO PUSH2 0x50D JUMPI DUP3 CALLDATALOAD DUP3 SSTORE SWAP2 PUSH1 0x20 ADD SWAP2 SWAP1 PUSH1 0x1 ADD SWAP1 PUSH2 0x4F2 JUMP JUMPDEST POP PUSH2 0x519 SWAP3 SWAP2 POP PUSH2 0x53B JUMP JUMPDEST POP SWAP1 JUMP JUMPDEST PUSH1 0x40 MLOAD DUP1 PUSH1 0x40 ADD PUSH1 0x40 MSTORE DUP1 PUSH1 0x2 SWAP1 PUSH1 0x20 DUP3 MUL DUP1 CALLDATASIZE DUP4 CALLDATACOPY POP SWAP2 SWAP3 SWAP2 POP POP JUMP JUMPDEST JUMPDEST DUP1 DUP3 GT ISZERO PUSH2 0x519 JUMPI PUSH1 0x0 DUP2 SSTORE PUSH1 0x1 ADD PUSH2 0x53C JUMP JUMPDEST PUSH1 0x0 DUP1 PUSH1 0x20 DUP4 DUP6 SUB SLT ISZERO PUSH2 0x563 JUMPI PUSH1 0x0 DUP1 REVERT JUMPDEST DUP3 CALLDATALOAD PUSH8 0xFFFFFFFFFFFFFFFF DUP2 GT ISZERO PUSH2 0x57A JUMPI PUSH1 0x0 DUP1 REVERT JUMPDEST DUP4 ADD PUSH1 0x1F DUP2 ADD DUP6 SGT PUSH2 0x58B JUMPI PUSH1 0x0 DUP1 REVERT JUMPDEST DUP1 CALLDATALOAD PUSH8 0xFFFFFFFFFFFFFFFF DUP2 GT ISZERO PUSH2 0x5A2 JUMPI PUSH1 0x0 DUP1 REVERT JUMPDEST DUP6 PUSH1 0x20 DUP3 DUP5 ADD ADD GT ISZERO PUSH2 0x5B4 JUMPI PUSH1 0x0 DUP1 REVERT JUMPDEST PUSH1 0x20 SWAP2 SWAP1 SWAP2 ADD SWAP6 SWAP1 SWAP5 POP SWAP3 POP POP POP JUMP JUMPDEST PUSH1 0x0 PUSH1 0x40 DUP3 DUP5 SUB SLT ISZERO PUSH2 0x5D6 JUMPI PUSH1 0x0 DUP1 REVERT JUMPDEST DUP3 PUSH1 0x40 DUP4 ADD GT ISZERO PUSH2 0x5E6 JUMPI PUSH1 0x0 DUP1 REVERT JUMPDEST POP SWAP2 SWAP1 POP JUMP JUMPDEST PUSH1 0x0 DUP1 PUSH1 0x40 DUP4 DUP6 SUB SLT ISZERO PUSH2 0x5FF JUMPI PUSH1 0x0 DUP1 REVERT JUMPDEST POP POP DUP1 CALLDATALOAD SWAP3 PUSH1 0x20 SWAP1 SWAP2 ADD CALLDATALOAD SWAP2 POP JUMP JUMPDEST PUSH1 0x0 PUSH1 0x20 DUP3 DUP5 SUB SLT ISZERO PUSH2 0x620 JUMPI PUSH1 0x0 DUP1 REVERT JUMPDEST POP CALLDATALOAD SWAP2 SWAP1 POP JUMP JUMPDEST PUSH1 0x40 DUP2 ADD DUP2 DUP4 PUSH1 0x0 JUMPDEST PUSH1 0x2 DUP2 LT ISZERO PUSH2 0x64F JUMPI DUP2 MLOAD DUP4 MSTORE PUSH1 0x20 SWAP3 DUP4 ADD SWAP3 SWAP1 SWAP2 ADD SWAP1 PUSH1 0x1 ADD PUSH2 0x630 JUMP JUMPDEST POP POP POP SWAP3 SWAP2 POP POP JUMP JUMPDEST PUSH4 0x4E487B71 PUSH1 0xE0 SHL PUSH1 0x0 MSTORE PUSH1 0x41 PUSH1 0x4 MSTORE PUSH1 0x24 PUSH1 0x0 REVERT JUMPDEST PUSH1 0x0 PUSH1 0x20 DUP3 DUP5 SUB SLT ISZERO PUSH2 0x680 JUMPI PUSH1 0x0 DUP1 REVERT JUMPDEST DUP2 CALLDATALOAD PUSH8 0xFFFFFFFFFFFFFFFF DUP2 GT ISZERO PUSH2 0x697 JUMPI PUSH1 0x0 DUP1 REVERT JUMPDEST DUP3 ADD PUSH1 0x1F DUP2 ADD DUP5 SGT PUSH2 0x6A8 JUMPI PUSH1 0x0 DUP1 REVERT JUMPDEST DUP1 CALLDATALOAD PUSH8 0xFFFFFFFFFFFFFFFF DUP2 GT ISZERO PUSH2 0x6C2 JUMPI PUSH2 0x6C2 PUSH2 0x658 JUMP JUMPDEST PUSH1 0x40 MLOAD PUSH1 0x1F DUP3 ADD PUSH1 0x1F NOT SWAP1 DUP2 AND PUSH1 0x3F ADD AND DUP2 ADD PUSH8 0xFFFFFFFFFFFFFFFF DUP2 GT DUP3 DUP3 LT OR ISZERO PUSH2 0x6F1 JUMPI PUSH2 0x6F1 PUSH2 0x658 JUMP JUMPDEST PUSH1 0x40 MSTORE DUP2 DUP2 MSTORE DUP3 DUP3 ADD PUSH1 0x20 ADD DUP7 LT ISZERO PUSH2 0x709 JUMPI PUSH1 0x0 DUP1 REVERT JUMPDEST DUP2 PUSH1 0x20 DUP5 ADD PUSH1 0x20 DUP4 ADD CALLDATACOPY PUSH1 0x0 SWAP2 DUP2 ADD PUSH1 0x20 ADD SWAP2 SWAP1 SWAP2 MSTORE SWAP5 SWAP4 POP POP POP POP JUMP JUMPDEST PUSH1 0x20 DUP2 MSTORE DUP2 PUSH1 0x20 DUP3 ADD MSTORE DUP2 DUP4 PUSH1 0x40 DUP4 ADD CALLDATACOPY PUSH1 0x0 DUP2 DUP4 ADD PUSH1 0x40 SWAP1 DUP2 ADD SWAP2 SWAP1 SWAP2 MSTORE PUSH1 0x1F SWAP1 SWAP3 ADD PUSH1 0x1F NOT AND ADD ADD SWAP2 SWAP1 POP JUMP JUMPDEST DUP2 DUP4 DUP3 CALLDATACOPY PUSH1 0x0 SWAP2 ADD SWAP1 DUP2 MSTORE SWAP2 SWAP1 POP JUMP INVALID LOG2 PUSH5 0x6970667358 0x22 SLT KECCAK256 PUSH30 0x85F24388DF1463815EA21FC2EF3971066B14B661E65FE11748D1314F0F6D JUMP PUSH5 0x736F6C6343 STOP ADDMOD SHR STOP CALLER "
                },
                "methodIdentifiers": {
                    "addCharacterHash(string)": "0260cfaa",
                    "addHashesHash(bytes32[2])": "142736b0",
                    "encryptionPathsMap(bytes32,uint256)": "1c1a8356",
                    "getComponents(bytes32)": "1d03df5e",
                    "getHashForCharacter(string)": "edbc2749",
                    "getHashForHashes(bytes32[2])": "352b1d01",
                    "hashExists(bytes32)": "b535b5c3",
                    "hashExistsMap(bytes32)": "b4785c81",
                    "hashLookupMap(string)": "eb7f35b4",
                    "hashesLookupMap(bytes32,bytes32)": "e49c7f04"
                }
            }
        }
    }
}