{
    "contracts/decxDAG_units/UTF8Validator.sol": {
        "UTF8Validator": {
            "abi": [
                {
                    "inputs": [],
                    "name": "UTF8_ControlCharacterNotAllowed",
                    "type": "error"
                },
                {
                    "inputs": [],
                    "name": "UTF8_Incomplete2ByteSequence",
                    "type": "error"
                },
                {
                    "inputs": [],
                    "name": "UTF8_Incomplete3ByteSequence",
                    "type": "error"
                },
                {
                    "inputs": [],
                    "name": "UTF8_Incomplete4ByteSequence",
                    "type": "error"
                },
                {
                    "inputs": [],
                    "name": "UTF8_InvalidCharacter",
                    "type": "error"
                },
                {
                    "inputs": [],
                    "name": "UTF8_InvalidContinuationByte",
                    "type": "error"
                },
                {
                    "inputs": [],
                    "name": "UTF8_InvalidLeadingByte",
                    "type": "error"
                },
                {
                    "inputs": [
                        {
                            "internalType": "string",
                            "name": "character",
                            "type": "string"
                        }
                    ],
                    "name": "validateCharacter",
                    "outputs": [],
                    "stateMutability": "pure",
                    "type": "function"
                }
            ],
            "evm": {
                "bytecode": {
                    "linkReferences": {},
                    "object": "6080604052348015600f57600080fd5b5061031e8061001f6000396000f3fe608060405234801561001057600080fd5b506004361061002b5760003560e01c8063545c789214610030575b600080fd5b61004361003e36600461025e565b610045565b005b8181808015806100555750600481115b1561007357604051630648dea760e21b815260040160405180910390fd5b600083836000818110610088576100886102d2565b909101356001600160f81b031916915050600160ff1b8110156100cb57816001146100c657604051630648dea760e21b815260040160405180910390fd5b610189565b600360fe1b6001600160f81b0319821610156100fa57604051631e0c3bfb60e11b815260040160405180910390fd5b600760fd1b6001600160f81b03198216101561013157816002146100c657604051630648dea760e21b815260040160405180910390fd5b600f60fc1b6001600160f81b03198216101561016857816003146100c657604051630648dea760e21b815260040160405180910390fd5b8160041461018957604051630648dea760e21b815260040160405180910390fd5b600182111561020e5760015b828110156102085760008585838181106101b1576101b16102d2565b909101356001600160f81b031916915050600160ff1b8110806101e1575060bf60f81b6001600160f81b03198216115b156101ff57604051632847793f60e01b815260040160405180910390fd5b50600101610195565b50610256565b601f60f81b6001600160f81b031982161115806102385750607f60f81b6001600160f81b03198216145b1561025657604051635168a18360e01b815260040160405180910390fd5b505050505050565b6000806020838503121561027157600080fd5b823567ffffffffffffffff81111561028857600080fd5b8301601f8101851361029957600080fd5b803567ffffffffffffffff8111156102b057600080fd5b8560208284010111156102c257600080fd5b6020919091019590945092505050565b634e487b7160e01b600052603260045260246000fdfea2646970667358221220e1f6cfb74530b8f4e235239592c4a713e108cad4c2563833d7f244482c47f27264736f6c634300081c0033",
                    "opcodes": "PUSH1 0x80 PUSH1 0x40 MSTORE CALLVALUE DUP1 ISZERO PUSH1 0xF JUMPI PUSH1 0x0 DUP1 REVERT JUMPDEST POP PUSH2 0x31E DUP1 PUSH2 0x1F PUSH1 0x0 CODECOPY PUSH1 0x0 RETURN INVALID PUSH1 0x80 PUSH1 0x40 MSTORE CALLVALUE DUP1 ISZERO PUSH2 0x10 JUMPI PUSH1 0x0 DUP1 REVERT JUMPDEST POP PUSH1 0x4 CALLDATASIZE LT PUSH2 0x2B JUMPI PUSH1 0x0 CALLDATALOAD PUSH1 0xE0 SHR DUP1 PUSH4 0x545C7892 EQ PUSH2 0x30 JUMPI JUMPDEST PUSH1 0x0 DUP1 REVERT JUMPDEST PUSH2 0x43 PUSH2 0x3E CALLDATASIZE PUSH1 0x4 PUSH2 0x25E JUMP JUMPDEST PUSH2 0x45 JUMP JUMPDEST STOP JUMPDEST DUP2 DUP2 DUP1 DUP1 ISZERO DUP1 PUSH2 0x55 JUMPI POP PUSH1 0x4 DUP2 GT JUMPDEST ISZERO PUSH2 0x73 JUMPI PUSH1 0x40 MLOAD PUSH4 0x648DEA7 PUSH1 0xE2 SHL DUP2 MSTORE PUSH1 0x4 ADD PUSH1 0x40 MLOAD DUP1 SWAP2 SUB SWAP1 REVERT JUMPDEST PUSH1 0x0 DUP4 DUP4 PUSH1 0x0 DUP2 DUP2 LT PUSH2 0x88 JUMPI PUSH2 0x88 PUSH2 0x2D2 JUMP JUMPDEST SWAP1 SWAP2 ADD CALLDATALOAD PUSH1 0x1 PUSH1 0x1 PUSH1 0xF8 SHL SUB NOT AND SWAP2 POP POP PUSH1 0x1 PUSH1 0xFF SHL DUP2 LT ISZERO PUSH2 0xCB JUMPI DUP2 PUSH1 0x1 EQ PUSH2 0xC6 JUMPI PUSH1 0x40 MLOAD PUSH4 0x648DEA7 PUSH1 0xE2 SHL DUP2 MSTORE PUSH1 0x4 ADD PUSH1 0x40 MLOAD DUP1 SWAP2 SUB SWAP1 REVERT JUMPDEST PUSH2 0x189 JUMP JUMPDEST PUSH1 0x3 PUSH1 0xFE SHL PUSH1 0x1 PUSH1 0x1 PUSH1 0xF8 SHL SUB NOT DUP3 AND LT ISZERO PUSH2 0xFA JUMPI PUSH1 0x40 MLOAD PUSH4 0x1E0C3BFB PUSH1 0xE1 SHL DUP2 MSTORE PUSH1 0x4 ADD PUSH1 0x40 MLOAD DUP1 SWAP2 SUB SWAP1 REVERT JUMPDEST PUSH1 0x7 PUSH1 0xFD SHL PUSH1 0x1 PUSH1 0x1 PUSH1 0xF8 SHL SUB NOT DUP3 AND LT ISZERO PUSH2 0x131 JUMPI DUP2 PUSH1 0x2 EQ PUSH2 0xC6 JUMPI PUSH1 0x40 MLOAD PUSH4 0x648DEA7 PUSH1 0xE2 SHL DUP2 MSTORE PUSH1 0x4 ADD PUSH1 0x40 MLOAD DUP1 SWAP2 SUB SWAP1 REVERT JUMPDEST PUSH1 0xF PUSH1 0xFC SHL PUSH1 0x1 PUSH1 0x1 PUSH1 0xF8 SHL SUB NOT DUP3 AND LT ISZERO PUSH2 0x168 JUMPI DUP2 PUSH1 0x3 EQ PUSH2 0xC6 JUMPI PUSH1 0x40 MLOAD PUSH4 0x648DEA7 PUSH1 0xE2 SHL DUP2 MSTORE PUSH1 0x4 ADD PUSH1 0x40 MLOAD DUP1 SWAP2 SUB SWAP1 REVERT JUMPDEST DUP2 PUSH1 0x4 EQ PUSH2 0x189 JUMPI PUSH1 0x40 MLOAD PUSH4 0x648DEA7 PUSH1 0xE2 SHL DUP2 MSTORE PUSH1 0x4 ADD PUSH1 0x40 MLOAD DUP1 SWAP2 SUB SWAP1 REVERT JUMPDEST PUSH1 0x1 DUP3 GT ISZERO PUSH2 0x20E JUMPI PUSH1 0x1 JUMPDEST DUP3 DUP2 LT ISZERO PUSH2 0x208 JUMPI PUSH1 0x0 DUP6 DUP6 DUP4 DUP2 DUP2 LT PUSH2 0x1B1 JUMPI PUSH2 0x1B1 PUSH2 0x2D2 JUMP JUMPDEST SWAP1 SWAP2 ADD CALLDATALOAD PUSH1 0x1 PUSH1 0x1 PUSH1 0xF8 SHL SUB NOT AND SWAP2 POP POP PUSH1 0x1 PUSH1 0xFF SHL DUP2 LT DUP1 PUSH2 0x1E1 JUMPI POP PUSH1 0xBF PUSH1 0xF8 SHL PUSH1 0x1 PUSH1 0x1 PUSH1 0xF8 SHL SUB NOT DUP3 AND GT JUMPDEST ISZERO PUSH2 0x1FF JUMPI PUSH1 0x40 MLOAD PUSH4 0x2847793F PUSH1 0xE0 SHL DUP2 MSTORE PUSH1 0x4 ADD PUSH1 0x40 MLOAD DUP1 SWAP2 SUB SWAP1 REVERT JUMPDEST POP PUSH1 0x1 ADD PUSH2 0x195 JUMP JUMPDEST POP PUSH2 0x256 JUMP JUMPDEST PUSH1 0x1F PUSH1 0xF8 SHL PUSH1 0x1 PUSH1 0x1 PUSH1 0xF8 SHL SUB NOT DUP3 AND GT ISZERO DUP1 PUSH2 0x238 JUMPI POP PUSH1 0x7F PUSH1 0xF8 SHL PUSH1 0x1 PUSH1 0x1 PUSH1 0xF8 SHL SUB NOT DUP3 AND EQ JUMPDEST ISZERO PUSH2 0x256 JUMPI PUSH1 0x40 MLOAD PUSH4 0x5168A183 PUSH1 0xE0 SHL DUP2 MSTORE PUSH1 0x4 ADD PUSH1 0x40 MLOAD DUP1 SWAP2 SUB SWAP1 REVERT JUMPDEST POP POP POP POP POP POP JUMP JUMPDEST PUSH1 0x0 DUP1 PUSH1 0x20 DUP4 DUP6 SUB SLT ISZERO PUSH2 0x271 JUMPI PUSH1 0x0 DUP1 REVERT JUMPDEST DUP3 CALLDATALOAD PUSH8 0xFFFFFFFFFFFFFFFF DUP2 GT ISZERO PUSH2 0x288 JUMPI PUSH1 0x0 DUP1 REVERT JUMPDEST DUP4 ADD PUSH1 0x1F DUP2 ADD DUP6 SGT PUSH2 0x299 JUMPI PUSH1 0x0 DUP1 REVERT JUMPDEST DUP1 CALLDATALOAD PUSH8 0xFFFFFFFFFFFFFFFF DUP2 GT ISZERO PUSH2 0x2B0 JUMPI PUSH1 0x0 DUP1 REVERT JUMPDEST DUP6 PUSH1 0x20 DUP3 DUP5 ADD ADD GT ISZERO PUSH2 0x2C2 JUMPI PUSH1 0x0 DUP1 REVERT JUMPDEST PUSH1 0x20 SWAP2 SWAP1 SWAP2 ADD SWAP6 SWAP1 SWAP5 POP SWAP3 POP POP POP JUMP JUMPDEST PUSH4 0x4E487B71 PUSH1 0xE0 SHL PUSH1 0x0 MSTORE PUSH1 0x32 PUSH1 0x4 MSTORE PUSH1 0x24 PUSH1 0x0 REVERT INVALID LOG2 PUSH5 0x6970667358 0x22 SLT KECCAK256 0xE1 0xF6 0xCF 0xB7 GASLIMIT ADDRESS 0xB8 DELEGATECALL 0xE2 CALLDATALOAD 0x23 SWAP6 SWAP3 0xC4 0xA7 SGT 0xE1 ADDMOD 0xCA 0xD4 0xC2 JUMP CODESIZE CALLER 0xD7 CALLCODE PREVRANDAO BASEFEE 0x2C SELFBALANCE CALLCODE PUSH19 0x64736F6C634300081C00330000000000000000 "
                },
                "methodIdentifiers": {
                    "validateCharacter(string)": "545c7892"
                }
            }
        }
    }
}