{
  "_format": "hh-sol-artifact-1",
  "contractName": "UTF8Validator",
  "sourceName": "contracts/decxDAG_units/UTF8Validator.sol",
  "abi": [
    {
      "inputs": [],
      "name": "UTF8_ControlCharacterNotAllowed",
      "type": "error"
    },
    {
      "inputs": [],
      "name": "UTF8_Incomplete2ByteSequence",
      "type": "error"
    },
    {
      "inputs": [],
      "name": "UTF8_Incomplete3ByteSequence",
      "type": "error"
    },
    {
      "inputs": [],
      "name": "UTF8_Incomplete4ByteSequence",
      "type": "error"
    },
    {
      "inputs": [],
      "name": "UTF8_InvalidCharacter",
      "type": "error"
    },
    {
      "inputs": [],
      "name": "UTF8_InvalidContinuationByte",
      "type": "error"
    },
    {
      "inputs": [],
      "name": "UTF8_InvalidLeadingByte",
      "type": "error"
    },
    {
      "inputs": [
        {
          "internalType": "string",
          "name": "character",
          "type": "string"
        }
      ],
      "name": "validateCharacter",
      "outputs": [],
      "stateMutability": "pure",
      "type": "function"
    }
  ],
  "bytecode": "0x6080604052348015600f57600080fd5b5061031e8061001f6000396000f3fe608060405234801561001057600080fd5b506004361061002b5760003560e01c8063545c789214610030575b600080fd5b61004361003e36600461025e565b610045565b005b8181808015806100555750600481115b1561007357604051630648dea760e21b815260040160405180910390fd5b600083836000818110610088576100886102d2565b909101356001600160f81b031916915050600160ff1b8110156100cb57816001146100c657604051630648dea760e21b815260040160405180910390fd5b610189565b600360fe1b6001600160f81b0319821610156100fa57604051631e0c3bfb60e11b815260040160405180910390fd5b600760fd1b6001600160f81b03198216101561013157816002146100c657604051630648dea760e21b815260040160405180910390fd5b600f60fc1b6001600160f81b03198216101561016857816003146100c657604051630648dea760e21b815260040160405180910390fd5b8160041461018957604051630648dea760e21b815260040160405180910390fd5b600182111561020e5760015b828110156102085760008585838181106101b1576101b16102d2565b909101356001600160f81b031916915050600160ff1b8110806101e1575060bf60f81b6001600160f81b03198216115b156101ff57604051632847793f60e01b815260040160405180910390fd5b50600101610195565b50610256565b601f60f81b6001600160f81b031982161115806102385750607f60f81b6001600160f81b03198216145b1561025657604051635168a18360e01b815260040160405180910390fd5b505050505050565b6000806020838503121561027157600080fd5b823567ffffffffffffffff81111561028857600080fd5b8301601f8101851361029957600080fd5b803567ffffffffffffffff8111156102b057600080fd5b8560208284010111156102c257600080fd5b6020919091019590945092505050565b634e487b7160e01b600052603260045260246000fdfea2646970667358221220e1f6cfb74530b8f4e235239592c4a713e108cad4c2563833d7f244482c47f27264736f6c634300081c0033",
  "linkReferences": {},
  "deployedLinkReferences": {}
}