{
  "_format": "hh-sol-artifact-1",
  "contractName": "DecxRegistry",
  "sourceName": "contracts/decxDAG_units/DecxRegistry.sol",
  "abi": [
    {
      "inputs": [
        {
          "internalType": "contract IUTF8Validator",
          "name": "_utf8ValidatorAddress",
          "type": "address"
        }
      ],
      "stateMutability": "nonpayable",
      "type": "constructor"
    },
    {
      "inputs": [],
      "name": "DecxRegistry_InvalidHash",
      "type": "error"
    },
    {
      "inputs": [],
      "name": "DecxRegistry_ZeroHashNotAllowed",
      "type": "error"
    },
    {
      "inputs": [
        {
          "internalType": "string",
          "name": "character",
          "type": "string"
        }
      ],
      "name": "addCharacterHash",
      "outputs": [
        {
          "internalType": "bytes32",
          "name": "",
          "type": "bytes32"
        }
      ],
      "stateMutability": "nonpayable",
      "type": "function"
    },
    {
      "inputs": [
        {
          "internalType": "bytes32[2]",
          "name": "hashes",
          "type": "bytes32[2]"
        }
      ],
      "name": "addHashesHash",
      "outputs": [
        {
          "internalType": "bytes32",
          "name": "",
          "type": "bytes32"
        }
      ],
      "stateMutability": "nonpayable",
      "type": "function"
    },
    {
      "inputs": [
        {
          "internalType": "bytes32",
          "name": "",
          "type": "bytes32"
        },
        {
          "internalType": "uint256",
          "name": "",
          "type": "uint256"
        }
      ],
      "name": "encryptionPathsMap",
      "outputs": [
        {
          "internalType": "bytes32",
          "name": "",
          "type": "bytes32"
        }
      ],
      "stateMutability": "view",
      "type": "function"
    },
    {
      "inputs": [
        {
          "internalType": "bytes32",
          "name": "hash",
          "type": "bytes32"
        }
      ],
      "name": "getComponents",
      "outputs": [
        {
          "internalType": "bytes32[2]",
          "name": "",
          "type": "bytes32[2]"
        }
      ],
      "stateMutability": "view",
      "type": "function"
    },
    {
      "inputs": [
        {
          "internalType": "string",
          "name": "character",
          "type": "string"
        }
      ],
      "name": "getHashForCharacter",
      "outputs": [
        {
          "internalType": "bytes32",
          "name": "",
          "type": "bytes32"
        }
      ],
      "stateMutability": "view",
      "type": "function"
    },
    {
      "inputs": [
        {
          "internalType": "bytes32[2]",
          "name": "hashes",
          "type": "bytes32[2]"
        }
      ],
      "name": "getHashForHashes",
      "outputs": [
        {
          "internalType": "bytes32",
          "name": "",
          "type": "bytes32"
        }
      ],
      "stateMutability": "view",
      "type": "function"
    },
    {
      "inputs": [
        {
          "internalType": "bytes32",
          "name": "hash",
          "type": "bytes32"
        }
      ],
      "name": "hashExists",
      "outputs": [
        {
          "internalType": "bool",
          "name": "",
          "type": "bool"
        }
      ],
      "stateMutability": "view",
      "type": "function"
    },
    {
      "inputs": [
        {
          "internalType": "bytes32",
          "name": "",
          "type": "bytes32"
        }
      ],
      "name": "hashExistsMap",
      "outputs": [
        {
          "internalType": "bool",
          "name": "",
          "type": "bool"
        }
      ],
      "stateMutability": "view",
      "type": "function"
    },
    {
      "inputs": [
        {
          "internalType": "string",
          "name": "",
          "type": "string"
        }
      ],
      "name": "hashLookupMap",
      "outputs": [
        {
          "internalType": "bytes32",
          "name": "",
          "type": "bytes32"
        }
      ],
      "stateMutability": "view",
      "type": "function"
    },
    {
      "inputs": [
        {
          "internalType": "bytes32",
          "name": "",
          "type": "bytes32"
        },
        {
          "internalType": "bytes32",
          "name": "",
          "type": "bytes32"
        }
      ],
      "name": "hashesLookupMap",
      "outputs": [
        {
          "internalType": "bytes32",
          "name": "",
          "type": "bytes32"
        }
      ],
      "stateMutability": "view",
      "type": "function"
    }
  ],
  "bytecode": "0x60a0604052348015600f57600080fd5b50604051610821380380610821833981016040819052602c91603c565b6001600160a01b0316608052606a565b600060208284031215604d57600080fd5b81516001600160a01b0381168114606357600080fd5b9392505050565b60805161079c6100856000396000610217015261079c6000f3fe608060405234801561001057600080fd5b506004361061009e5760003560e01c8063b4785c8111610066578063b4785c811461013e578063b535b5c314610171578063e49c7f0414610194578063eb7f35b4146101bf578063edbc2749146101ea57600080fd5b80630260cfaa146100a3578063142736b0146100c95780631c1a8356146100dc5780631d03df5e146100ef578063352b1d011461010f575b600080fd5b6100b66100b1366004610550565b6101fd565b6040519081526020015b60405180910390f35b6100b66100d73660046105c4565b610324565b6100b66100ea3660046105ec565b610448565b6101026100fd36600461060e565b61046d565b6040516100c09190610627565b6100b661011d3660046105c4565b80356000908152600260209081526040808320938201358352929052205490565b61016161014c36600461060e565b60006020819052908152604090205460ff1681565b60405190151581526020016100c0565b61016161017f36600461060e565b60009081526020819052604090205460ff1690565b6100b66101a23660046105ec565b600260209081526000928352604080842090915290825290205481565b6100b66101cd36600461066e565b805160208183018101805160018252928201919093012091525481565b6100b66101f8366004610550565b6104b4565b604051632a2e3c4960e11b81526000906001600160a01b037f0000000000000000000000000000000000000000000000000000000000000000169063545c78929061024e9086908690600401610727565b60006040518083038186803b15801561026657600080fd5b505afa15801561027a573d6000803e3d6000fd5b50505050600060018484604051610292929190610756565b90815260405190819003602001902054905080156102b157905061031e565b600084846040516020016102c6929190610727565b60408051601f198184030181528282528051602091820120600081815291829052919020805460ff19166001908117909155909250829161030a9088908890610756565b908152604051908190036020019020559150505b92915050565b600081356020830135811580610338575080155b15610356576040516313e2cf8760e21b815260040160405180910390fd5b60008281526020819052604090205460ff161580610383575060008181526020819052604090205460ff16155b156103a15760405163057975e360e11b815260040160405180910390fd5b600082815260026020908152604080832084845290915290205480156103c957949350505050565b604080516020810185905290810183905260009060600160408051601f1981840301815291815281516020928301206000818152808452828120805460ff191660011790558781526002808552838220888352855283822083905582825260039094529190912090925061043e9188906104df565b5095945050505050565b6003602052816000526040600020816002811061046457600080fd5b01549150829050565b61047561051d565b600082815260036020526040908190208151808301928390529160029082845b8154815260200190600101908083116104955750505050509050919050565b6000600183836040516104c8929190610756565b908152602001604051809103902054905092915050565b826002810192821561050d579160200282015b8281111561050d5782358255916020019190600101906104f2565b5061051992915061053b565b5090565b60405180604001604052806002906020820280368337509192915050565b5b80821115610519576000815560010161053c565b6000806020838503121561056357600080fd5b823567ffffffffffffffff81111561057a57600080fd5b8301601f8101851361058b57600080fd5b803567ffffffffffffffff8111156105a257600080fd5b8560208284010111156105b457600080fd5b6020919091019590945092505050565b6000604082840312156105d657600080fd5b826040830111156105e657600080fd5b50919050565b600080604083850312156105ff57600080fd5b50508035926020909101359150565b60006020828403121561062057600080fd5b5035919050565b60408101818360005b600281101561064f578151835260209283019290910190600101610630565b50505092915050565b634e487b7160e01b600052604160045260246000fd5b60006020828403121561068057600080fd5b813567ffffffffffffffff81111561069757600080fd5b8201601f810184136106a857600080fd5b803567ffffffffffffffff8111156106c2576106c2610658565b604051601f8201601f19908116603f0116810167ffffffffffffffff811182821017156106f1576106f1610658565b60405281815282820160200186101561070957600080fd5b81602084016020830137600091810160200191909152949350505050565b60208152816020820152818360408301376000818301604090810191909152601f909201601f19160101919050565b818382376000910190815291905056fea26469706673582212207d85f24388df1463815ea21fc2ef3971066b14b661e65fe11748d1314f0f6d5664736f6c634300081c0033",
  "linkReferences": {},
  "deployedLinkReferences": {}
}