{
  "_format": "hh-sol-artifact-1",
  "contractName": "DecxDAG",
  "sourceName": "contracts/DecxDAG.sol",
  "abi": [
    {
      "inputs": [
        {
          "internalType": "address",
          "name": "_decxRegistry",
          "type": "address"
        }
      ],
      "stateMutability": "nonpayable",
      "type": "constructor"
    },
    {
      "inputs": [],
      "name": "DecxDAG_EmptyStringNotAllowed",
      "type": "error"
    },
    {
      "inputs": [],
      "name": "DecxDAG_HashDoesNotExist",
      "type": "error"
    },
    {
      "anonymous": false,
      "inputs": [
        {
          "indexed": true,
          "internalType": "bytes32",
          "name": "hash",
          "type": "bytes32"
        },
        {
          "indexed": false,
          "internalType": "bytes",
          "name": "encryptedPayload",
          "type": "bytes"
        }
      ],
      "name": "EncryptedDataStored",
      "type": "event"
    },
    {
      "anonymous": false,
      "inputs": [
        {
          "indexed": true,
          "internalType": "bytes32",
          "name": "hash",
          "type": "bytes32"
        },
        {
          "indexed": false,
          "internalType": "bytes32[2]",
          "name": "components",
          "type": "bytes32[2]"
        },
        {
          "indexed": false,
          "internalType": "uint256",
          "name": "index",
          "type": "uint256"
        }
      ],
      "name": "EncryptionPathCreated",
      "type": "event"
    },
    {
      "inputs": [
        {
          "internalType": "bytes32",
          "name": "hash",
          "type": "bytes32"
        }
      ],
      "name": "exists",
      "outputs": [
        {
          "internalType": "bool",
          "name": "",
          "type": "bool"
        }
      ],
      "stateMutability": "view",
      "type": "function"
    },
    {
      "inputs": [
        {
          "internalType": "bytes32",
          "name": "hash",
          "type": "bytes32"
        }
      ],
      "name": "getComponents",
      "outputs": [
        {
          "internalType": "bytes32[2]",
          "name": "",
          "type": "bytes32[2]"
        }
      ],
      "stateMutability": "view",
      "type": "function"
    },
    {
      "inputs": [
        {
          "internalType": "string",
          "name": "input",
          "type": "string"
        }
      ],
      "name": "press",
      "outputs": [
        {
          "internalType": "bytes32",
          "name": "",
          "type": "bytes32"
        }
      ],
      "stateMutability": "nonpayable",
      "type": "function"
    },
    {
      "inputs": [
        {
          "internalType": "bytes32",
          "name": "hash",
          "type": "bytes32"
        },
        {
          "internalType": "bytes",
          "name": "encryptedPayload",
          "type": "bytes"
        }
      ],
      "name": "storeEncryptedData",
      "outputs": [],
      "stateMutability": "nonpayable",
      "type": "function"
    }
  ],
  "bytecode": "0x6080604052348015600f57600080fd5b50604051610be2380380610be2833981016040819052602c916053565b600080546001600160a01b0319166001600160a01b03929092169190911781556001556081565b600060208284031215606457600080fd5b81516001600160a01b0381168114607a57600080fd5b9392505050565b610b52806100906000396000f3fe608060405234801561001057600080fd5b506004361061004c5760003560e01c80631d03df5e1461005157806338a699a41461007a578063ad7aea101461009d578063e72d5e5f146100b2575b600080fd5b61006461005f3660046107f8565b6100d3565b604051610071919061083a565b60405180910390f35b61008d6100883660046107f8565b61014d565b6040519015158152602001610071565b6100b06100ab366004610891565b6101bb565b005b6100c56100c03660046108dd565b610284565b604051908152602001610071565b6100db6107da565b600054604051630e81efaf60e11b8152600481018490526001600160a01b0390911690631d03df5e906024016040805180830381865afa158015610123573d6000803e3d6000fd5b505050506040513d601f19601f820116820180604052508101906101479190610935565b92915050565b6000805460405163b535b5c360e01b8152600481018490526001600160a01b039091169063b535b5c390602401602060405180830381865afa158015610197573d6000803e3d6000fd5b505050506040513d601f19601f8201168201806040525081019061014791906109b5565b60005460405163b535b5c360e01b8152600481018590526001600160a01b039091169063b535b5c390602401602060405180830381865afa158015610204573d6000803e3d6000fd5b505050506040513d601f19601f8201168201806040525081019061022891906109b5565b61024557604051630325f5b760e61b815260040160405180910390fd5b827fe658f5046eebdef59fb4837b9896d61624119beffd0dd0a070d4ef286815c40783836040516102779291906109de565b60405180910390a2505050565b60008083838080601f0160208091040260200160405190810160405280939291908181526020018383808284376000920182905250845194955084900392506102e39150505760405163e13793b760e01b815260040160405180910390fd5b6000806102ef8461030b565b9150915060006102ff83836105c8565b98975050505050505050565b80516060906000908067ffffffffffffffff81111561032c5761032c61091f565b604051908082528060200260200182016040528015610355578160200160208202803683370190505b5092506000915060005b818110156105c157600085828151811061037b5761037b610a0d565b0160200151600160ff1b16600003610395575060016103f7565b8582815181106103a7576103a7610a0d565b0160200151600760fd1b16600360fe1b036103c4575060026103f7565b8582815181106103d6576103d6610a0d565b0160200151600f60fc1b16600760fd1b036103f3575060036103f7565b5060045b60008167ffffffffffffffff8111156104125761041261091f565b6040519080825280601f01601f19166020018201604052801561043c576020820181803683370190505b50905060005b828110156104a157876104558286610a39565b8151811061046557610465610a0d565b602001015160f81c60f81b82828151811061048257610482610a0d565b60200101906001600160f81b031916908160001a905350600101610442565b506000805460405163013067d560e11b81528392916001600160a01b031690630260cfaa906104d4908590600401610a4c565b6020604051808303816000875af11580156104f3573d6000803e3d6000fd5b505050506040513d601f19601f820116820180604052508101906105179190610a9a565b90508088888151811061052c5761052c610a0d565b602002602001018181525050807f7048737eaa1d4aad6328a57ac89c84007f0956b04c6cdf9c75fc34042e45955560405180604001604052808481526020016000801b8152506001600081548092919061058590610ab3565b91905055604051610597929190610acc565b60405180910390a26105a98486610a39565b9450866105b581610ab3565b9750505050505061035f565b5050915091565b6000815b60018111156107b6576000805b826105e5826001610a39565b101561074d576000604051806040016040528088848151811061060a5761060a610a0d565b60200260200101518152602001888460016106259190610a39565b8151811061063557610635610a0d565b6020908102919091010151905260008054604051630142736b60e41b815292935090916001600160a01b039091169063142736b09061067890859060040161083a565b6020604051808303816000875af1158015610697573d6000803e3d6000fd5b505050506040513d601f19601f820116820180604052508101906106bb9190610a9a565b9050808885815181106106d0576106d0610a0d565b60209081029190910101526001805482917f7048737eaa1d4aad6328a57ac89c84007f0956b04c6cdf9c75fc34042e459555918591600061071083610ab3565b91905055604051610722929190610acc565b60405180910390a28361073481610ab3565b94505050506002816107469190610a39565b90506105d9565b50610759600283610ae7565b6001036107af578461076c600184610b09565b8151811061077c5761077c610a0d565b602002602001015185828151811061079657610796610a0d565b6020908102919091010152806107ab81610ab3565b9150505b90506105cc565b836000815181106107c9576107c9610a0d565b602002602001015191505092915050565b60405180604001604052806002906020820280368337509192915050565b60006020828403121561080a57600080fd5b5035919050565b8060005b6002811015610834578151845260209384019390910190600101610815565b50505050565b604081016101478284610811565b60008083601f84011261085a57600080fd5b50813567ffffffffffffffff81111561087257600080fd5b60208301915083602082850101111561088a57600080fd5b9250929050565b6000806000604084860312156108a657600080fd5b83359250602084013567ffffffffffffffff8111156108c457600080fd5b6108d086828701610848565b9497909650939450505050565b600080602083850312156108f057600080fd5b823567ffffffffffffffff81111561090757600080fd5b61091385828601610848565b90969095509350505050565b634e487b7160e01b600052604160045260246000fd5b60006040828403121561094757600080fd5b82601f83011261095657600080fd5b6040516040810181811067ffffffffffffffff821117156109795761097961091f565b806040525080604084018581111561099057600080fd5b845b818110156109aa578051835260209283019201610992565b509195945050505050565b6000602082840312156109c757600080fd5b815180151581146109d757600080fd5b9392505050565b60208152816020820152818360408301376000818301604090810191909152601f909201601f19160101919050565b634e487b7160e01b600052603260045260246000fd5b634e487b7160e01b600052601160045260246000fd5b8082018082111561014757610147610a23565b602081526000825180602084015260005b81811015610a7a5760208186018101516040868401015201610a5d565b506000604082850101526040601f19601f83011684010191505092915050565b600060208284031215610aac57600080fd5b5051919050565b600060018201610ac557610ac5610a23565b5060010190565b60608101610ada8285610811565b8260408301529392505050565b600082610b0457634e487b7160e01b600052601260045260246000fd5b500690565b8181038181111561014757610147610a2356fea26469706673582212207c8d2cbb6c9637e1b6230ff69c18741e274ab323746b3a78f0582e6c56b751a264736f6c634300081c0033",
  "linkReferences": {},
  "deployedLinkReferences": {}
}